:020000040000FA
:10000000801F0020650300007F03000081030000C3
:1000100000000000000000000000000000000000E0
:100020000000000000000000000000003902000095
:100030000000000000000000CD02000019030000D5
:100040008903000089030000250A000089030000DD
:100050008903000000000000F9050000890300008A
:10006000F5090000050A0000150A000089030000D8
:100070008903000089030000890300008903000050
:1000800089030000F50600008903000089030000D1
:100090004D09000089030000890300008903000066
:1000A0008903000089030000000000000000000038
:1000B0000000000000000000000000000000000040
:1000C00000F002F800F03EF80CA030C80838241800
:1000D0002D18A246671EAB4654465D46AC4201D180
:1000E00000F030F87E460F3E0FCCB6460126334274
:1000F00000D0FB1AA246AB46334318472C39000008
:100100004C390000103A02D378C878C1FAD85207A7
:1001100001D330C830C101D504680C6070470000BD
:100120000023002400250026103A01D378C1FBD813
:10013000520700D330C100D50B6070471FB51FBDFB
:1001400010B510BD00F037FA1146FFF7F7FF0FB4F6
:1001500000F00CF80FBC01F0F1FA00F032F903B432
:10016000FFF7EEFF03BC00F0DDFD000004B001F07E
:10017000B7FF0448002102F00BF801F0C5FF00F0C2
:1001800020F9000098000020401E00BF00BF00BF03
:1001900000BF00BF00BF00BF00BF00BF00BF00BF67
:1001A00000BFF1D170470000401E00BF00BF00BF7C
:1001B00000BF00BF00BF00BF00BF00BF00BF00BF47
:1001C00000BFF1D17047000080F309887047EFF35A
:1001D00009807047684680F3098806480078C007A0
:1001E00003D1032080F314887047022080F3148821
:1001F0007047000060390000064B9C46EFF3058312
:100200001B0605D1EFF31483DB0701D000DF704735
:10021000604700000D270000064B9C46EFF3058366
:100220001B0605D1EFF31483DB0701D000DF704715
:1002300060470000ED280000EFF309808169891E06
:10024000097800292BD1A6461FC8A4467446E0476A
:10025000EFF3098307C31A4B06CB91421CD0083B2E
:1002600000290DD0EFF3098020388862F0C04446A1
:100270004D4656465F46F0C00CB402F0B3FE0CBCCF
:100280001A60906A1030F0C8A046A946B246BB4634
:1002900080F309882038F0C80220C043004710B519
:1002A000084A1268914209D8074C89006458A6464A
:1002B0001FC8A446F047EFF309840FC410BD000027
:1002C00000010020F4050000F405000002F06AFDC2
:1002D000104B06CB91421AD0083BEFF3098020382F
:1002E0008862F0C044464D4656465F46F0C00CB4A6
:1002F00002F078FE0CBC1A60906A1030F0C8A0467C
:10030000A946B246BB4680F309882038F0C80220CF
:10031000C04300470001002002F016FFD8E70000AC
:1003200001F092FF02F010FFD2E7000070B5054621
:100330000C46164602E00FCC0FC5103E102EFAD226
:10034000082E02D303CC03C5083E042E07D301CCEC
:1003500001C5361F03E021782970641C6D1C761ED0
:10036000F9D270BD03210C4802680A4302600B48B1
:1003700002680A4302600A4880470A480047FEE7CD
:10038000FEE7FEE7FEE7FEE7FEE700000648074956
:10039000074A084B70470000240500405405004000
:1003A000A1090000C1000000800F0020801F002074
:1003B000801700208017002000487047200F002081
:1003C000704710B50446C046C0462046FFF7C7FE3A
:1003D00010BDF8B5042A2CD3830712D00B78491C22
:1003E0000370401C521E83070BD00B78491C03700E
:1003F000401C521E830704D00B78491C0370401C1C
:10040000521E8B079B0F05D0C91ADF002023DE1B6D
:1004100008C90AE0FFF78AFFF8BD1D4608C9FD407C
:100420001C46B4402C4310C0121F042AF5D2F30816
:10043000C91A521EF0D40B78491C0370401C521E7E
:10044000EAD40B78491C0370401C012AE4D40978D3
:100450000170F8BD002203098B422CD3030A8B42A2
:1004600011D300239C464EE003460B433CD40022AC
:1004700043088B4231D303098B421CD3030A8B42BE
:1004800001D394463FE0C3098B4201D3CB01C01A8C
:10049000524183098B4201D38B01C01A5241430957
:1004A0008B4201D34B01C01A524103098B4201D345
:1004B0000B01C01A5241C3088B4201D3CB00C01AB2
:1004C000524183088B4201D38B00C01A524143082A
:1004D0008B4201D34B00C01A5241411A00D201464F
:1004E0005241104670475DE0CA0F00D049420310E8
:1004F00000D34042534000229C4603098B422DD337
:10050000030A8B4212D3FC22890112BA030A8B42DE
:100510000CD3890192118B4208D3890192118B422D
:1005200004D389013AD0921100E08909C3098B42B2
:1005300001D3CB01C01A524183098B4201D38B01F5
:10054000C01A524143098B4201D34B01C01A524198
:1005500003098B4201D30B01C01A5241C3088B42DD
:1005600001D3CB00C01A524183088B4201D38B00C8
:10057000C01A5241D9D243088B4201D34B00C01A52
:100580005241411A00D20146634652415B10104667
:1005900001D34042002B00D54942704763465B10AF
:1005A00000D3404201B50020C046C04602BD70479E
:1005B0007047704770477546FFF7FEFEAE46050070
:1005C00069465346C008C000854618B020B5FFF7FD
:1005D000DDFE60BC00274908B6460026C0C5C0C580
:1005E000C0C5C0C5C0C5C0C5C0C5C0C5403D490027
:1005F0008D46704700000000F8B50024FF25013546
:10060000012627460094284601F020FD002808D046
:1006100031484068304204D0304800212818344323
:1006200001602D1D76007F1CADB2042FEBD3FF209F
:100630007D3001F00BFD002807D029480021016022
:1006400040070443274800690090274E200712D036
:100650000127002527420AD02448AA00111808695A
:100660000969C004C00E8903B258890F90477F0002
:100670006D1C042DEED3002C1DDA304620301421E1
:100680004156491C17D0077DBC06A40E204600F039
:1006900057FD80003558002D0DD0BE090121A14025
:1006A000134AA00080180068009A8003800F11424E
:1006B00002D0022802D0F8BD0328FCD1032E05D1B8
:1006C000022807D00221204601F0B0FC3146204626
:1006D000A847F8BD0321F6E7006300400060004032
:1006E0007C61004000050050600E00200065004065
:1006F0000007005010B50649002008604860886077
:10070000C860034940390860486003F04FF810BDE5
:1007100040110140F7B518214843214916464418B5
:10072000E16A8807800F02280BD0A06A626A801AEB
:10073000401E01D5226A1018864202DD89072DD09D
:100740000646002E2AD00027A06A616A451A6D1E4F
:1007500001D5206A4519616A206A411AA94201DC63
:10076000616A451AB54200DB3546616AE0692A468E
:1007700040180199FFF72DFE01987F19401901904B
:10078000606A761B40196062606A216A884201D102
:1007900000206062002ED7D13846FEBD0020FEBD8D
:1007A0001C0000200FB408B504A900916A46039903
:1007B00000F004F801B008BC04B01847F7B598B0D1
:1007C00007A80290402000250495039018980C4635
:1007D000059506902178641C002974D0252907D03E
:1007E00002A800F02FFA05980028F3DA1BB0F0BD3C
:1007F000002101230227042208262078232817D06D
:100800002B2813D02D280DD030280DD00022207891
:100810000346303B0A2B0ED20A235A431218303AB1
:10082000641CF4E7194304E0394302E0114300E09B
:100830003143641CE1E70023C7B22E2F0AD1641CA8
:1008400020780746303F0A2F04D20A277B431B1823
:10085000303BF4E76C280DD068280BD0702852D0BC
:100860000BDC25285AD058282ED063280CD06428B9
:1008700058D110E02078641CECE7732832D075283A
:1008800017D078284ED11FE01A981A9A0068011DD7
:100890001160017843E01A981A9F0068061D3E60B7
:1008A00000680191009201460A2202A800F0F6F8C1
:1008B00038E01A981A9F0068061D3E600068009292
:1008C00001910A2209E02FE01A981A9F0068061D7C
:1008D0003E600068009201911022014602A800F0DB
:1008E0003FF91FE01A981A9A0068011D1160066806
:1008F0003178761C002915D002A800F0A3F90598DC
:100900000028F5DA0EE01A981A9A00680823011DEB
:1009100011600168102200960195DFE7252102A8E9
:1009200000F090F9641C5EE70598002800DC5DE7A4
:100930000498002804D0024607A91898FFF7EAFE99
:10094000049905984018059050E70000FEB5002076
:10095000C043124D02906869019068462E6900F00C
:100960009DFC074600F028FE0446002F08D002AA8E
:100970000199009800F0B2FC029800F067FE06E0D2
:10098000029800F063FE002801D1002C02D030460E
:1009900000F020FC00206871FEBD0000D0000020A7
:1009A00010B500F0EDFC002805D00E490C48486059
:1009B000C8130D4988610D48018CC9B201290ED1B7
:1009C000818C09070BD1018D0906090F042906D175
:1009D000808D0006000F02D105490120886010BDFE
:1009E000DFFF07C000050040006C0040C00F00F0B2
:1009F0000006004010B50021014801F0B5FA10BD15
:100A00000080004010B50121014801F0ADFA10BD91
:100A10000090004010B50221014801F0A5FA10BD78
:100A200000A00040FEB5194CA068194D194E0027D2
:100A300000280ED0706840070BD5A7601648806963
:100A40000422C0B2A88069460A700871A968684685
:100A50008847E069002806D07068000603D5E76182
:100A6000032001F0FDFA606A00280ED0706880054E
:100A70000BD56762084980390868086002216A4618
:100A800011700190A96868468847FEBD00210040AA
:100A9000C00000200023004000250040FFB583B0C7
:100AA0000E4670420D9F0C9C0090002900DB08460A
:100AB000012502E0FFF7CEFC6D1C05998842F9D2B2
:100AC0000698A84200D90546002C04D0002E01DB70
:100AD000780700D5641EB80702D50698002811D003
:100AE000F8070FD1002C0DD02046641EA84209D96A
:100AF0002021039800F0A6F80398C0680028F1DAD6
:100B000007B0F0BD002E02DA2D21009E02E078072A
:100B100007D52B21039800F095F80398C0680028AA
:100B2000EEDBB807800F022811D1069800280ED1FD
:100B3000002C0CD02046641EA84208D9302103980E
:100B400000F080F80398C0680028F1DAD8E7019730
:100B500000943146069B059A039800F001F8CFE710
:100B6000FFB581B001271E463D460A9C029802E06F
:100B7000FFF770FC6D1C03998842F9D2AE4200D990
:100B800035460B98C0071CD1002C1AD00B98800753
:100B900001D5002E02D0202000900BE03020FBE792
:100BA0000099019800F04EF80198C068002845DBD4
:100BB000002C06D02046641EA842F1D801E003981C
:100BC000474339460298FFF745FC014603988142A6
:100BD00001D3012000E000203146761E012901DD0D
:100BE000012100E000210843E9D1154E3946029861
:100BF000FFF730FC0146029A7943511A0291315CA9
:100C0000019800F01FF80198C068002805DB3846FD
:100C10000399FFF71FFC0700E8D10B98C0070DD020
:100C2000002C0BD02046641EA84207D92021019831
:100C300000F008F80198C0680028F1DA05B0F0BDAE
:100C40004039000010B5044680686368421C934236
:100C500005DB23681954A260E068401CE060A268CC
:100C60006068824209D121682069FFF753FDA168BD
:100C7000884203D00020C043E06010BD0020A06087
:100C800010BD30B47446641E2578641CAB4200D29B
:100C90001D46635D5B00E31830BC184710B5002AA1
:100CA00006DA52005208D21DD308DB00102203E0FE
:100CB000D21C93089B000C22002B02D09C188C4263
:100CC00001D9012010BD8218836041180260416083
:100CD000C91AD018884202D810600246F9E70020ED
:100CE000106010BD80B505490978002904D0054F72
:100CF00000680349BC4600DF80BD0000F900002009
:100D0000FFFF0000352D000080B504490978002957
:100D100003D0034F0068BC4600DF80BDF90000200F
:100D20005D2C0000FEE700001CB506490120C860EC
:100D30000549487003206A461070896868468847EC
:100D40001CBD000000200040C0000020044900201D
:100D5000487004490122CA604A600349086070472C
:100D6000C00000200020004000250040BFF34F8F4E
:100D700004490348C860BFF34F8F00BFFDE7000080
:100D80000400FA0500ED00E070B50D46064600F0DF
:100D9000CFF804462946304600F017F8642148434E
:100DA0002146FFF757FB80B270BD70B516460C4662
:100DB000054600F0BDF870436421FFF74BFB82B29B
:100DC0002146284600F008F870BD10B5406801F0D3
:100DD0000FF880B210BD000070B5036804460C2007
:100DE00023254843ED5CC018022D01D0082070BDBA
:100DF0004068904204D16068D969407988472CE006
:100E000065686E79164DAE5D002E01D0112070BD63
:100E1000002802D09E69B0420CD3002A02D0986903
:100E2000904203D8204601F0B3FA0EE0204601F0CC
:100E3000E3FA0AE0002A01D0964203D8204601F0E6
:100E400023FB02E0204601F05DFB61680220497946
:100E500068540221606800F0FBFF002070BD0000B4
:100E6000CC000020FFB581B006460768029D0C202B
:100E700045432320C05DEC19002802D0082005B0AE
:100E8000F0BD002060602948006800902846316865
:100E90000A30085C002808D0002069464870039892
:100EA00000F08EFD00280ED101E00120F5E7039847
:100EB0007851039800F0D8FD00256019083000F043
:100EC00027FE002801D00420D9E76D1CEDB2022DC9
:100ED000F3D3207A00F066FE607A00F063FE2068AB
:100EE00000F0B8FD05467068029900F0A1FF237A72
:100EF00001462A46184600F035FE206800F0AAFD9B
:100F000005460221706800F093FF0146607A2A4688
:100F100000F028FE0498012802D1206800F0D4FDDA
:100F20000498A0720120E0720020A8E7B839000000
:100F300010B54068022100F05BFF80B210BD10B513
:100F40000468406800F0A0FF02202034E07010BD6B
:100F5000F7B588B00E00044609D025682846203031
:100F60000690C078002804D008200BB0F0BD0B20FC
:100F7000FBE700F031FF002803D0852801D00420D2
:100F8000F3E700F015FD002805D100F0E7FC00288C
:100F900001D00320E9E70698FF210170069841700F
:100FA0000698817000200C224243174600235219F4
:100FB000D372117251725A1E401CC0B2EA510228FB
:100FC000F1D30027E819203000F0A2FD002809D154
:100FD0007F1CFFB2022FF5D32846223000F086FE98
:100FE000002803D0204601F065F9C8E70027B800C3
:100FF0003258501C12D0F019037A39462046FFF7B8
:1010000031FF0490002804D0204601F053F90498E1
:10101000ABE7002239462046FFF7DEFE7F1CFFB219
:10102000022FE4D300200922244B316901E0490852
:10103000401C994201D99042F9D3214A51689268E3
:10104000029201916946087160681E4A40790290D7
:1010500001A9606800F03AFF070004D0204601F0C3
:1010600029F9384681E73169606800F0D3FF064608
:10107000A861606800F0C3FE012700970423324690
:101080000221606800F00AFF0221606800F0D7FECC
:101090000A98E86161680C4A4979002050546068F8
:1010A0000121006801F0D2F86068084940798000A9
:1010B0000C500698C770002057E70000FF0F000093
:1010C000B839000055230000CC000020B00E0020ED
:1010D0000003000F01D0002070470120704700007E
:1010E0000022D243830004490428CA5002D30818BE
:1010F0002030027470470000600E0020F0B500251B
:10110000ED43002A02D00023042601E00423052633
:101110000A4C04E09F00E7597F1C04D05B1CB342DB
:10112000F8D32846F0BD5DB2261835759E00A15152
:10113000002AF6D1E11820310874F2E7600E002091
:10114000024909181420085670470000600E00205C
:101150000448002101600121820511600168002915
:10116000FCD0704700010040F8B514460D46064615
:1011700082B200210B48FFF718FE0A48A2B20021F4
:101180001030FFF712FE0748AAB200210830FFF71F
:101190000CFE2B46324604A100200094FFF702FB10
:1011A000F8BD000034380000436F6C6F7220697323
:1011B0002073657420746F20426C75653A25642035
:1011C0005265643A256420477265656E3A25640A63
:1011D00000000000F8B5224801694A1C3DD02422D5
:1011E0005143826889184E681E494C6847690079E6
:1011F000E11B0D022D0AED1C002814D101201A4A12
:1012000000045060184A403A506018494000086095
:10121000174908601749012008602F20FEF7C4FF16
:101220000F4901200871B54200D23546E819000285
:101230000C49000A403108600A494968001B091B33
:101240000902090A0002000AC91C814204D90120CE
:101250000649400480390860F8BD02F0DBF8F8BDAB
:10126000D0000020001501404013014080E200E062
:1012700000E100E00010014072B602480168491C1C
:1012800001607047F400002003490868401E0860B0
:1012900000D162B670470000F400002010B50E497E
:1012A00000238A78CC78A24212D0521CD2B28A7023
:1012B000022A00D18B708A78074B92001C339A580F
:1012C0000260486910180002000A4861012010BD40
:1012D0000360002010BD0000D0000020F7B5144CC2
:1012E0000025A76823691EE024215943C9194E68C7
:1012F000864202D9301A486017E0801B7519002613
:101300004E600E750E699C460B6AB646002E0AD0DA
:10131000019E76193602360A8E607646CE601668D1
:101320000E6261461160591CDED12361FEBD0000D2
:10133000D00000200121814003484068014201D0D3
:101340000120704700207047B40000200121814037
:1013500003484078014201D00120704700207047C7
:10136000B4000020014610B501208840FFF7B0FE10
:1013700010BD01218140080700D001207047000006
:101380001048018CC9B2012917D1818C090714D1E9
:10139000018D09060A0F03D1828D1206120F0ED09D
:1013A000090F012903D1828D1206120F07D00329DC
:1013B00003D1808D0006000F01D00020704701206E
:1013C00070470000C00F00F0012181400804000CAC
:1013D00000D0012070470EB502468020002A0DD0B3
:1013E00000290BD11178012908D1104601A900F07C
:1013F00021F8042801D0002000E01020029A019971
:1014000003B000BD70B50D46040004D0002A02D11F
:101410002078012801D0802070BD204601F024FBF7
:10142000002805D02946204600F027F8002070BD8E
:10143000812070BD10B50446808900281CD06089C9
:1014400080000019006908606078022805D1002139
:10145000204601F0EFFC01F0DDFC72B6A089401ED1
:10146000A08162B66089401C80B26081E1898842B7
:1014700001D100206081042010BD10B501F0DAFC1C
:1014800001F0C8FC10BD000070B5BAB014223D498F
:101490002AA8FEF74BFF3B49142214312FA8FEF770
:1014A00045FF38491422283134A8FEF73FFF35485C
:1014B000354A2AA91838FFF74BFD3248324A2FA97E
:1014C0001038FFF745FD2F482F4A34A90838FFF799
:1014D0003FFD012003212D4A0B468400A418236000
:1014E000401C8842F9D927481838FFF728FD2548BD
:1014F0000838FFF724FD23481038FFF720FD0022AD
:1015000011466420FFF730FE962000F0E9F9002133
:1015100064220846FFF728FE962000F0E1F9002239
:1015200064211046FFF720FE962000F0D9F91549F6
:10153000A8223C316846FEF7F9FE154E01253560BC
:1015400014480021016001680029FCD0124880681D
:101550000E21FEF77FFF0C460A4610A10020FFF780
:1015600021F9756021460C2041436A465058114BC1
:101570008A185860516899609268DA60FFF7F4FD44
:101580003AB070BD4C3800004923000000070050FD
:1015900000D0004000D1004000D50040506F73697A
:1015A00074696F6E20256420696E207461626C65B9
:1015B0000A00000000000020F8B5234801690091EE
:1015C000457833E02048E900C0680E1834782AE0F6
:1015D000182060437168641C0818B178E4B2A14215
:1015E00000D100240178022902D003291BD113E085
:1015F000154A40682421926841438F18397D00299B
:1016000011D002F09BF8002038750CE024277843B5
:10161000C0180275006A03E00B4900228B68086954
:10162000471CF3D108617078A042D1D128466D1EC5
:10163000EDB20028C6D1044801690098814201D06A
:101640000120F8BD0020F8BDD0000020F8B5044608
:10165000384800270169009146785CE03548F10080
:10166000C2688D1851E0601C07D0324A242092686D
:10167000604321468018046A24E0287818214143F9
:101680006A68401CC0B252182870A978884200D1FC
:101690002F70284B516824209B684843C01813784A
:1016A000012B34D1037D002B31D193688360D36843
:1016B000C360136903615269C2611E4A5279002AEC
:1016C00000D087601B4B82685B6996469C46D31AA4
:1016D0001A02194B120A9A4202D2C368D21808E0C1
:1016E000724663469A1A1202C368120A934202D9DA
:1016F0009A1A426000E0476087600122C760027565
:10170000921E0262084601F0E7FF601CABD1287808
:1017100069788842A7D13046761EF6B200289DD15E
:10172000044801690098814201D00120F8BD0020E1
:10173000F8BD0000D0000020FFFF7F0000242EA194
:101740002046FFF72FF8FFF79FFE2FA10020FFF79D
:1017500029F82FA10020FFF725F8FFF7F9FC012059
:1017600000F05CFF28A10020FFF71CF82C4E2D4D47
:101770002D49012008600020306030680028FCD02E
:101780002A4FB868FA21641CFEF764FE0846FA3056
:1017900000F0A6F8B868FA21FEF75CFE0A46FA32B5
:1017A00023A10020FEF7FEFF254800F075FF64200E
:1017B00000F096F8224800F0F5FE00280FD06B6983
:1017C000412B00DA00242869012806DA1C488278B7
:1017D0004178007800F03CF801E0401E286119A132
:1017E00000206A69FEF7DEFF052CC1DD281D07C851
:1017F0000024FFF7B9FCBBE75374617274696E672C
:10180000204C45440A000000446F6E65210A000028
:10181000426F6F74696E67207570206174200000DC
:1018200000D100400000002000D0004000D5004062
:1018300044656C6179696E672025640A00000000C8
:101840001C010020525353493A25640A000000004D
:10185000FFB51D4985B005200861174600211B48CA
:10186000FFF792FA064601211848FFF78DFA054660
:10187000164800211030FFF787FA04460898002820
:1018800000DA404241281DDA11A10020FEF78AFF4C
:10189000009701960295039410490020069B059A33
:1018A000FEF780FFE2190699D30F9A186918059878
:1018B000CB0F59183018C30F181852104910401088
:1018C000FFF752FC09B0F0BD0000002034380000E2
:1018D0004D657368696E670A00000000C439000036
:1018E00031B5054C04E0401E00902046FEF74CFC4C
:1018F00000980028F7D138BDE70300008207D30E17
:10190000FF229A408907090E10B5994000280BDA8A
:1019100003071B0F083B9C080C4BA400E318DC6971
:1019200094430C43DC6107E08408094BA400E418ED
:10193000236893430B432360C106C90E01208840EE
:10194000044908600449086010BD000000ED00E093
:1019500000E400E080E200E000E100E070B5124D3C
:10196000687D002801D0082070BD0F490020203973
:10197000421E0B18401CC0B21A752028F9D300244F
:101980002046FFF7ADFB641CE4B2052CF8D301211F
:101990000620FFF7B3FF01200449C007486001207B
:1019A0006875002070BD0000800E002000630040BC
:1019B0000248407D002800D001207047800E0020A2
:1019C000F8B504461E480D4600191421415600265C
:1019D000491C01D008262FE0A97800291DD001223A
:1019E00000212046FFF78AFB411C14D083001548D4
:1019F0002A78181869780369134F3B40036103691B
:101A0000E706FF0C9207920BC907C90A3B430A433A
:101A10001343036104E004260EE00121C94301756C
:101A20000A4A0320A100891808606A780120A040B2
:101A30000749012A02D0C8603046F8BD8860FBE73C
:101A4000600E002000650040FFE0ECFF0007005042
:101A50000005005010B5FFF773FB80060149000E2A
:101A6000401810BD006000400949091814200856AC
:101A70008100084809180869032210431F22120236
:101A800002430A6100BF00BF00BF08617047000049
:101A9000600E002000650040002900D00121084AA6
:101AA00012181420105682000648101802690123EB
:101AB0001B059A430261026909050A4302617047E6
:101AC000600E00200065004010B5FFF739FB80066E
:101AD000024A000E01218018016010BD0060004024
:101AE00070B5044600F0CEFB07490D19002802D05E
:101AF000287DFFF7F5FA0020C0432875034A02202D
:101B0000A1008918086070BD600E00200007005019
:101B1000F1B50427114E0024FFF7AEFB0125A540C7
:101B2000354204D02046FFF705FC00280AD0FFF715
:101B3000ABFB002F04D0641CAE43E4B2002EEBD10B
:101B40003846F8BD064901204A68A0401043486065
:101B5000009800270470FFF797FBF1E7FFFF0000F4
:101B6000B400002070B514460D00064611D0002CBC
:101B70000FD0FFF729FC00280DD03046FFF7DAFB25
:101B800000280AD00648F1000818056144610020C9
:101B900070BD0E2070BD072070BD082070BD000014
:101BA00000F5014010B50446FFF7DCFB00280FD01C
:101BB0002046FFF709FC002804D02046FFF7BAFBB7
:101BC000002807D001200449A0408860002010BDF3
:101BD000072010BD082010BD00F5014010B50446D7
:101BE000FFF7C0FB00280FD02046FFF7EDFB0028D1
:101BF00004D02046FFF79EFB002807D001200449AF
:101C0000A0404860002010BD072010BD082010BD76
:101C100000F5014070B50546FFF7D6FB00280ED051
:101C200001240848AC4084600025FFF725FB0648E6
:101C30004168A1434160FFF727FB284670BD072597
:101C4000FBE7000000F50140B4000020024610B59B
:101C50000120904000F002F810BD000070B505466C
:101C60000C460846FFF785FB002815D02046FFF7F5
:101C70006DFB002812D02846FFF72AFA00280BD067
:101C8000FFF7FAFA0648A100081801682943016025
:101C9000FFF7FAFA002070BD072070BD082070BD64
:101CA00000F8014070B505460C460846FFF761FB99
:101CB000002815D02046FFF749FB002812D02846FF
:101CC000FFF706FA00280BD0FFF7D6FA0648A10066
:101CD00008180168A9430160FFF7D6FA002070BD1B
:101CE000072070BD082070BD00F80140F1B5042741
:101CF0000F260024FFF7C0FA0125A540354204D085
:101D00002046FFF723FB00280AD0FFF7BDFA002F7B
:101D100004D0641CAE43E4B2002EEBD13846F8BDCB
:101D2000054901204A78A0401043487000980027D8
:101D30000470FFF7A9FAF1E7B400002010B50446DB
:101D4000FFF717FB002806D0044A0120E10089189C
:101D50004860002010BD072010BD000000F00140C9
:101D600010B50446FFF705FB00280BD02046FFF70F
:101D7000EDFA002808D0054A0120E1008918086022
:101D8000002010BD072010BD082010BD00F001404C
:101D900070B50446FFF7EDFA002815D02046FFF78E
:101DA000D5FA002812D00A490126E0004018466002
:101DB0000025FFF761FA0748A6404178B14341701A
:101DC000FFF762FA284670BD0725FBE70825F9E70B
:101DD00000F00140B400002004480178002901D03F
:101DE000852070470121017000207047B400002059
:101DF00015220068890092018918405870470068D0
:101E00000121C160704770B5012424048C40032671
:101E100005683602AD19002B01D06C6000E0AC60A3
:101E2000006889000818052109024018026470BD85
:101E300002688800FF30413080B210187047026895
:101E4000012000048840032109025118886070476E
:101E50008A0010B5FF324132036892B200249C50D0
:101E600002680120000488400321090251184860DB
:101E700010BD00000268012111614079014A11542E
:101E800070470000BC000020016801220A60407910
:101E9000014A022111547047BC000020F0B5FF2513
:101EA000023504688D40FF34FF340234059E2768F4
:101EB000AF4327600468FF34FF34023425681D43B4
:101EC00025603346FFF79FFFF0BD0000F8B50446DC
:101ED0004079224F0D46395C1646002901D0082072
:101EE000F8BD002D02D11E49C00045180420E97834
:101EF0002056FFF703FD61791A4A8900686850503F
:101F0000002E29D06079114680000C390E50052032
:101F10002168000209186A784B68D2075B085B00E9
:101F2000D20F13434B602268A9781218936889076F
:101F30009B089B00890F0B43936021682A7808183F
:101F40000169120709090901120F11430161617941
:101F5000012078540020F8BD0720F8BDBC00002007
:101F6000A0390000A40E0020F8B500250E46044656
:101F70002F46A800FF30413080B22158002910D0F0
:101F800001210904A94003221202A21852680A4240
:101F900007D02750B2000549044B89580C3B9A588A
:101FA00090476D1C042DE4D3F8BD0000A40E002062
:101FB00070B503460079C106C90E01208840114959
:101FC000086058791049002480000C501846FFF72B
:101FD00051FF18680D49FF30FF30023002688A4314
:101FE00002600122002012040326360211461D68F9
:101FF0008140AD19A960401C0428F7D358790449E1
:102000000C5470BD80E100E0980E00200F0F00001E
:10201000BC00002001220068052352021B02C018E8
:102020000069C2404A4350097047000082000648D8
:102030001018026803231B049A4302600268090413
:102040000A4302607047000000070050034940182F
:102050000068012800D000207047000000600040A8
:1020600070B5022401221B4D1B4E1C490300FEF7D4
:1020700008FE05040C2619200B004878012818D00A
:10208000022801D10320487070BD4878002802D092
:102090000328F9D104E00420286032604A7070BD42
:1020A0004C7070BD4878012806D0022804D003285F
:1020B000F7D1FEF74BFE70BDFEF736FE70BD4878D7
:1020C0000128FBD14878022800D0B2608878E86106
:1020D000E6E700000025004000200040C00000208E
:1020E00080B5EFF30580002801D0822080BDEFF39A
:1020F0001480C00703D0034FBC4600DF80BD01F051
:10210000ABF980BD5934000080B588B0EFF305808D
:10211000002802D0822008B080BDEFF31480810730
:102120001248890F06D001291AD0022910D003299C
:1021300018D112E008A981F309880078C0070AD0F5
:10214000022080F31488BFF34F8FBFF36F8F09E035
:102150000078C00706D10320F3E70078C00701D05C
:10216000FF20D8E7024FBC4600DFD4E7603900000B
:10217000D134000080B5EFF30582002A02D0FFF7CA
:102180002AF980BD014FBC4600DF80BD4735000005
:1021900080B5EFF30582002A01D0002080BDEFF367
:1021A0001482064BD2075B78D20F1A4303D0044F38
:1021B000BC4600DF80BD01F0E5F980BDF8000020DD
:1021C00085350000034FBC4600DF034FBC4600DFEF
:1021D000FEE70000FD3500001936000080B5024F13
:1021E000BC4600DF80BD0000553600000025094CCC
:1021F000ED4329462068FFF7BDFF02460846102A36
:10220000F7D1FFF7EBFF0028F3D0024608469047CE
:10221000EFE70000AC000020FEE7FEE7074801689A
:102220000748416100218161072101610548016A78
:10223000FF22120611430162401770475C3900000B
:1022400000E000E000ED00E070470000074A904227
:1022500001D1074803E0074A904202D10648C16015
:102260007047064A9042FBD10548F8E700800040DD
:10227000008C004000900040009C004000A0004006
:1022800000AC00400449081814214156042901D229
:102290000120704700207047600E002010B50068D4
:1022A0000C2251430C18207AFFF77CFC607AFFF770
:1022B00079FC10BDF1B582B0029800240568281998
:1022C00020300078FF2801D0FFF7A4FC641CE4B2A2
:1022D000022CF4D32220405DFF2801D0FFF758FDE7
:1022E000002420460C214843002647190090B819C5
:1022F0000190007AFF2804D0FFF78CFC0199FF20A1
:102300000872761CF6B2022EF1D300982858411CB0
:1023100005D0FFF7E5FB00210098C94329500020B4
:10232000641CE4B2F872022CDBD302984068FFF719
:102330003FFEFEBD10B5046820342078FFF732FC64
:102340006078FFF72FFC10BD01490120087070472D
:102350000000002070B50C480C46015D002911D02A
:10236000015D491E0155005D00280BD1074EA500F7
:10237000705902214068FFF762FD70590068C16919
:102380002046884770BD0000CC000020B00E002021
:10239000FEB50C4601680646009120460C214843D4
:1023A00000990190471815463046FFF7C3FF2146B4
:1023B0003046FFF773FF01980A30002D09D00099CD
:1023C0008969A9420FD88DB23168085C002804D011
:1023D00005E03168085C002801D0002100E00121FF
:1023E0003868FFF759FB00232A4621467068FFF73B
:1023F0000AFD7D60FEBD0000F7B5046882B00646A8
:1024000003980C214843051903982746009022376A
:102410003046FFF78FFF30460399FFF73FFF002359
:102420007068049A0099FFF7EEFC39781448FFF7BA
:1024300039FC3978287AFFF709FC3978687AFFF790
:1024400005FC69680F480029397813D0C9000F18B6
:1024500002217068FFF7ECFC01462020005D3A463F
:10246000FFF780FB20342078FFF7B8FB0498686002
:1024700005B0F0BDC9000F1870680399EAE70000C5
:10248000FFFFF0FF00F00140F7B500980C21046851
:102490000198274648430519164622370098FFF74A
:1024A00049FF39781548FFF7FDFB3978287AFFF79F
:1024B000CDFB3978687AFFF7C9FB1148002E15D09B
:1024C000218B8EB23978C9000F180098022140681C
:1024D000FFF7AEFC01462020005D3A46FFF742FBC5
:1024E00020342078FFF77AFB6E60FEBD3978C90092
:1024F0000F18009801994068EAE70000FFFFF0FF1D
:1025000004F00140F7B5056882B0064603980C2137
:1025100048432C464719223421782148FFF7C2FB53
:10252000203521782878FFF791FB21786878FFF72C
:102530008DFB2078FFF702FC03217068FFF778FC21
:1025400001467068026803988000403012182878AD
:10255000FFF708FB7968049881420DD93868FFF7C6
:1025600079FA009003217068FFF762FC01466878F1
:10257000009AFFF7F7FA05E06A7801202178904089
:10258000FFF790FB04987860002370680321049A99
:10259000FFF739FC2078FFF7E3FB05B0F0BD000042
:1025A000FFFFF0FF70B5174900240C61164B0122A4
:1025B0001A610D69002DFCD0144D6860144805683F
:1025C0001026354305600C605A6008680028FCD06E
:1025D000CC60CC615A619A60C8680028FCD00B4876
:1025E000403080680B4D4006400E6861CC610C6144
:1025F0001A6108690028FCD007480068002800D04C
:10260000012070BD00110040001000400015004086
:1026100000120040000000200014004010B51249D4
:102620000124CC63114AA11E9160114900230B6063
:102630001049CB600C614B610F4A8A610F4ACA6135
:102640000A620F4A4A628A62CB620C6302224A63C0
:102650000C4A8A630C4ACA63886002460BA10020B8
:10266000FEF7A0F810BD0000C01F0040001300409E
:10267000001200400015004020200200494C494C47
:102680004444444421100000FFFF00003234302550
:1026900064204D687A0A000070B50546002116488E
:1026A000FEF772FB154C0021207013480830FEF72E
:1026B0006BFB6070104800211030FEF765FB10497D
:1026C000A07000230B610F4A012010610C69002CDF
:1026D000FCD00D4C65600B6010600C68002CFCD0C9
:1026E000CB609060CC68002CFCD00B611061086955
:1026F0000028FCD070BD0000343800001C01002010
:102700000011004000100040001500400146EFF3AA
:102710001080C207D20F72B60868002801D0036883
:102720000B60002A00D162B6704710B500280ED0A9
:1027300000290CD00B318A089200016844680B1AFA
:102740001B1B934205D2084609680029F5D10020D9
:1027500010BD210007D0211803680B604A6001609A
:102760000846083010BD4260083010BD70B50D46F7
:1027700000280FD00849094C884204D2226801463B
:10278000104600F077FB20684570054800F0D9F846
:1027900000F03CFC70BD0000FFFF000000010020C5
:1027A000F00E002010B50E480C4942680D480B6829
:1027B0000068934204D00A60CB88421E9A188A802F
:1027C0008A8880B2824208D100200860044800F064
:1027D000B8F80146024800F075FB10BD1401002056
:1027E000F00E00201001002070B51A4DE868002896
:1027F0002FD0A88A401EA882002624E0A0680028C6
:1028000008D0616841606068002802D0A1688160DA
:102810006660A6600F482146183800F053FBA08A76
:10282000A8826078042804D10B49E08A09884018FE
:10283000A08201206070E068E860E068002801D0B4
:102840000561E6602661A88A002802D1EC68002CA8
:10285000D4D170BD080F00201001002070B5040015
:102860000ED00C4DA17828680126827891420BD9B0
:1028700000F046FB28684670204600F0C7FB70BD9C
:10288000054800F05EF8F8E766702146024800F05F
:1028900019FB70BD00010020F00E002010B50446A9
:1028A000008B084320836278618B062A17D0052AA3
:1028B00014D1084212D00A46024062838843208322
:1028C000204600F046FB01206070628B0821204604
:1028D00000F03BFB2146044800F0F4FA10BD0A4624
:1028E0008243EBD010BD0000F00E0020814202D3E5
:1028F00042688A4201D801207047EFF31082D20764
:10290000D20F72B603680B60016000D162B600207E
:102910007047002810D000290ED00022083903E0AB
:1029200002460068002807D08842F9D1002A05D065
:10293000006810600020704701207047002141604E
:10294000F8E70146406842684A600B780022022B93
:1029500005D0012B03D0032B01D0426070474368A0
:10296000002B01D09960426082607047810700D0DF
:102970000020704770B504461546002020700122E3
:1029800062702246A170203211716060A060E06028
:1029900020612062A082E082208360835071E08CFD
:1029A000002803D10448FFF7B1FEE0622946204623
:1029B00000F01EF870BD000050070020002801D074
:1029C000082901D2012070474118091F0022016027
:1029D0000A604260104670470348002101600349C5
:1029E0000988C18070470000140100205839000098
:1029F000F0B5C28C194D930802D12A881204930CA9
:102A0000C26A9C001219540700D5121F0124240623
:102A1000403AD463002491632646A700641CD65133
:102A20000E2CFAD3C4691462826201632968C9005A
:102A30000FD5112B0DD9103B5908094B02E0083A6C
:102A400053601360491EFAD1C16A121F8A4200D92D
:102A50001360C06A03490160F0BD000054390000F2
:102A6000CCCCCCCCA52E5AE2C1898089081A7047FB
:102A70000122027000224270827042600281428113
:102A80008281034A89038918090CC18170470000BB
:102A90000000FCFFF8B50446406800270D460028FA
:102AA00044D060780126012837D0022813D00328AB
:102AB00032D10846FFF72AFE05002DD02046FFF749
:102AC00040FF0446294600F03DFA6670204600F0BB
:102AD00040FA21461DE02046FFF733FF054600215E
:102AE00000F030FA2189E86989000919086172B695
:102AF000A089401CA08162B62089401C80B2208140
:102B0000E189884200D127816E70284600F021FAC1
:102B10002946134800F0D6F9F8BD2046FFF711FF0B
:102B200004462A46102100F010FACEE7A089E18978
:102B3000884211D2208980000019056172B6A089EF
:102B4000401CA08162B62089401C80B22081E189AE
:102B50008842E1D12781F8BD0320FFF75DFBF8BD76
:102B6000F00E002070B50446808900261546002826
:102B700034D0608980000019006908606089401CB9
:102B800080B26081E189884200D166816068002856
:102B900002D06078022806D072B6A089401EA081BB
:102BA00062B6002070BD2046FFF7CBFE054600212F
:102BB00000F0C8F92189E8698900091908612089AC
:102BC000401C80B22081E189884200D126812846BC
:102BD00000F0BFF92846FFF741FEE2E7002D08D0DC
:102BE0000B4862680168002A05D0204600F06AF9A7
:102BF00008E0012070BD616001684E60006884607B
:102C00000120607008212846FFF7B0FDF1E70000C1
:102C10000001002010B5002813D0411C12D00C492F
:102C20000C4C88420CD87D21C90048430A490A68E7
:102C300080181146401EFDF70DFC401CA04204D92F
:102C4000204610BD0348401C10BD80B210BD0000DE
:102C500000093D00FEFF00006C390000F8B5044695
:102C60004088002804D0314DA1682A68914201D0E3
:102C7000FF20F8BD401E0004000C608053D129687D
:102C8000086AA04209D1E068086208E0C268A2426E
:102C900002D1E268C26002E010460028F6D124208A
:102CA000405C0A6A07E05368002B03D09B7883429C
:102CB00000D91846D268002AF5D1887061680126CB
:102CC000002922D02046FFF73CFE0746002100F0F5
:102CD00039F9384600F03DF96680A760386AE0604F
:102CE0003C621348296840688A788078824201D320
:102CF000384616E00E4800F0E5F839460C4800F07A
:102D0000E1F8286846707E700AE0094949688A78C7
:102D10002968824207D9064800F0D4F8286846702E
:102D20000020FFF79BFD0020F8BD000000010020FF
:102D3000F00E002070B50E46194D044641882868F3
:102D4000002907D0A168814209D16088401C6080B9
:102D5000002070BDA060016AE1600462F5E7002E0A
:102D60000FD08A788078824203D28870A06800F001
:102D7000D1F86068002806D02046296800F0A2F843
:102D800008E0012070BD2868606029680020486064
:102D90002868846009213046FFF7E8FCF1E700006D
:102DA0000001002070B518480121026851700068C8
:102DB00000F0A6F8154C657813E0E80001194868A2
:102DC0000278002A17D0012A1AD000F0F1F8E07832
:102DD0006D1C854200D1002572B6A078401EA070FF
:102DE00062B6A0780028E8D165700948FFF7A9FD10
:102DF00000F00CF970BD098989B2FFF74FFDE6E7D5
:102E00008968FFF747FEE2E700010020C00D0020BF
:102E1000F00E002005480178002902D00121417000
:102E200070470120024900074860704708010020F0
:102E300000ED00E070B50E4BDD789C1C1E4672B6AE
:102E40009A78AA4207D2521C22703278541CAC42A3
:102E500000D10024347062B6DC78944204D9D200E8
:102E6000D2189160506070BD0220FFF7D5F970BD97
:102E7000C00D002010B5124AD368002B17D013469E
:102E80009B8A04E0002C12D02246A48AE318D4685E
:102E90008B42F7D3C460D0600261C468002C00D0BC
:102EA0002061591A8182908A401A908210BD0024B4
:102EB000C460D060C91A02619182848210BD000092
:102EC000080F002030B502780023022A03D0012A1F
:102ED00001D0032A00D101238C7800E0104642681B
:102EE000002A02D09578A542F8D24A604160002BB2
:102EF00004D0002A00D09160886030BD0020FBE73C
:102F000003494A68426000228260486070470000BE
:102F1000F00E002010B583680446002B05D16078C0
:102F200001280CD1064B03E09B6818780028FBD0E1
:102F3000204600F023F821461846FFF7C3FF10BDD6
:102F4000F00E0020806A01627047806A426201626E
:102F5000704710B5016900290FD0C268CA60C36804
:102F60000022002B07D08B8A848A1B198B82C368AE
:102F70001961C26000E08A82026110BD8168002987
:102F800007D042684A604168002901D080688860A3
:102F90007047064906E04A68824202D140684860AC
:102FA000704711460029F6D170470000F00E00204E
:102FB00010B5416800290FD0FFF7C3FC0446FFF7A6
:102FC000C8FF0120607001462046FFF7BBFF214685
:102FD0000348FFF777FF10BD4188491C418010BDB1
:102FE000F00E002010B507480068816AC06A81426F
:102FF00003D300680449884202D00120FFF70CF98E
:1030000010BD000000010020A52E5AE202494860D0
:1030100002214170704700000001002070B50020BF
:1030200004462049204A02E08300CC50401C13880B
:103030009842F9D31D48342201881D48FDF72EFE21
:103040001C4801210088C90780B242181A4801684B
:103050001A48FDF723FE1A4808220188194800681B
:10306000FDF71CFE184DFF20E870EC84174A002184
:103070002846FFF77FFC164804210170446015487C
:103080000170C46004618482134815490560022000
:1030900068701248047044700978C170FFF79CFC96
:1030A00070BD0000440E002050390000743900004B
:1030B000D80500205439000078390000500700205E
:1030C0009C39000094000020BC0E00201B22000050
:1030D000F00E0020080F002000010020C00D00208D
:1030E0008039000010B51448016AFF221204114310
:1030F0000162C169026A5202920E92061143C161D5
:10310000FFF78CF80D490028086013DB82080C4992
:10311000920051180A688307DC0EFF23A3401A436C
:103120000A60C206D20E012191404009054A800082
:103130008018016010BD000000ED00E00C010020CF
:1031400000E400E000E100E010B50B480121026856
:1031500051700068FFF7D4FEFFF724FB07480168B1
:10316000491C0160FFF740FB00F082FA0448FFF7BA
:10317000E8FBFFF74BFF10BD00010020100100200D
:10318000F00E0020002805D0810702D10178002927
:1031900000D000207047000030B50C4C002362685E
:1031A00005E095688D4204D813461268491B002A31
:1031B000F7D102608160002A02D09568691A916097
:1031C000002B01D0186030BD606030BDF8000020D9
:1031D000FFB5080681B01E4617460D46000E00D109
:1031E0004D1C1648FFF792FA041E18D02802000C56
:1031F000E762E084E661E9B22046019AFFF7BAFB94
:1032000001250F480F4906E0AA001218803AD26F34
:10321000002A06D06D1C0A889542F5D9002005B019
:10322000F0BD002DFAD0A90008188038C467E570F9
:103230002046FFF713FB2846F1E70000D8050020E1
:10324000440E002050390000F8B5484D0028296888
:1032500002D0CA78824238D100274F70FCF7B7FFFE
:1032600029688862FFF7BEFE2868046A19E0606872
:10327000002815D02046FFF764FB06460021FFF723
:1032800061FE3046FFF765FE012070703146384818
:10329000FFF718FE01216180A660316AE1603462A7
:1032A000E468002CE3D12868C1788A0031495118BC
:1032B0008039CF67C16A3048FFF718FB29682F486B
:1032C000CF62FFF713FB2F604AE02D49098888423F
:1032D0000ED8810027480F18803FFD6F002D07D0C2
:1032E0002846FFF74BFE2846FFF733FE2C6A1DE009
:1032F000FF20F8BD6068002817D02046FFF721FBAB
:1033000006460021FFF71EFE3046FFF722FE012091
:10331000707031461648FFF7D5FD01216180A66027
:10332000316AE1603462E46800E0E468002CE1D1D5
:10333000FC671148E96AFFF7D9FA29460F48EC62A1
:10334000FFF7D4FA0A4840688278084801688B7809
:103350009A4208D901224A7001680548FFF7B2FD78
:103360000020FFF77BFA0020F8BD000000010020DC
:10337000F00E0020440E002050070020D805002049
:103380005039000070B51B4D002811D01A4A128820
:10339000904220D88200194810188038C46F002C41
:1033A00019D0A170242001552868A04205D014E04E
:1033B0002868817028682030017111484068807841
:1033C000884215D90E482968FFF77CFD296801203D
:1033D000487000200AE0FF2070BD2046FFF79AFDEC
:1033E0006078012804D10648FFF7ABFAFFF736FAF8
:1033F000002070BD0001002050390000440E002064
:10340000F00E002002480068002800D0C078704705
:103410000001002070B501240B49600408600B49CD
:1034200040108860094940398860094D6C602F2040
:10343000FCF7BAFEAC60074D00242F206C61FCF74E
:10344000B3FE2C7170BD000080E100E0401301402C
:1034500000100140D000002010B5154C2078002845
:103460000DD11448400706D1134801681148FFF7F1
:10347000A5FA002801D0852010BDFFF7CFFD0F4928
:10348000FF2009688870207800280BD100210C48A3
:1034900000F044F80B49086000210B4800F072F876
:1034A0000A490860012020700020607010BD0000F3
:1034B000F8000020100C00207C39000000010020E2
:1034C00094390000AC00002084390000A8000020DE
:1034D00070B5104D6878002801D0002070BD0E4CEA
:1034E0002068203001790020FFF74CFF2068C17868
:1034F000FF2903D1816A203181F30988616800299D
:1035000002D1606000202060FFF7ECFD01206870B0
:10351000E3E70000F80000200001002010B50400DF
:1035200008D02168002905D06068002802D0027800
:10353000002A01D0002010BD8900103189B2FFF7A8
:1035400097FA606810BD3EB5044680200D46002CF9
:1035500013D02178012910D12846FFF75BFB0246E2
:10356000204601A9FFF7FEFA012801D0102004E04F
:10357000002D01D0402000E00020029A019903B004
:1035800030BD000070B50E4604002ED02068002823
:103590002BD00420205EC11C27DB032825DCE1683A
:1035A000002905D01248FFF7C0F8051E16D000E02C
:1035B00000250421615EE068091D000201433346D5
:1035C0002A462068FFF704FE002808D00949800039
:1035D00040188038C06F0849826A516370BD002D61
:1035E00003D029460248FFF794F9002070BD00007F
:1035F000100C0020440E0020C521000010B5FFF77C
:1036000001FF002804D00349800040188038C06FB3
:1036100010BD0000440E002010B5FFF7B3FD0028D8
:1036200004D0C18C002903D0C46A02E0802010BD00
:103630000024C078FFF708FEFF2807D0002C03D035
:1036400021460348FFF765F9002010BD812010BD19
:10365000100C002010B5FFF789F9002805D041694A
:10366000026909680846114610BD0020014610BDD8
:10367000F8B5134E7468002C1BD0A068114F401E83
:10368000A06013E02546246874600022294638684B
:10369000FDF7B8FE002802D00420FEF7BDFD6879D2
:1036A000012807D001202871002C02D0A068002832
:1036B000E8D0F8BD2846E968FFF76EFDF4E70000A2
:1036C000F8000020AC00002001200249000508603D
:1036D0007047000000E200E0F0B5174F2421BC68FD
:1036E00041430D1939694A1C09D024224A4316194D
:1036F0006B687268934204D8D21A7260296238618A
:10370000F0BD0A4602E00A46396A9B1B4E1C0BD0EC
:1037100024264E4337197E689E42F4D324264E4316
:1037200036197768FF1A77606B60296224214A4353
:1037300011190862F0BD0000D000002070B5194CCE
:103740002269A5681346114606E0814207D00A4661
:10375000242671434919096A4E1CF6D170BD002E0A
:10376000FCD08A420CD1242043435819006A2061BE
:10377000401C05D10C4B01209860002363616071EF
:10378000242041434819242341685A43006A5219AE
:103790001062421CE2D02422504340194268511862
:1037A000416070BDD000002000100140F8B51D4CF4
:1037B0002569681C35D01C48002640686169401A9C
:1037C00007023F0A19E024204543A0682A185068E0
:1037D000B84214D8A3693F1A8619156A002B09D07C
:1037E000D16990699847002807D000221146FDF75B
:1037F000BDFA02E09169D0698847681CE3D1A178DD
:10380000E078814206D1401CC0B2E070022801D1AC
:103810000020E07003490006800D1C310E50FFF7B8
:1038200053FFF8BDD000002000150140008000408B
:10383000080000003C0100202C380000600100203E
:1038400030390000840100203839000001000000F8
:10385000FFFFFFFF000000000100000088130000D0
:1038600002000000FFFFFFFF000000000100000059
:103870008813000003000000FFFFFFFF00000000AE
:103880000100000088130000640000000000000038
:103890006400000064000000000000000000000060
:1038A000640000006400000000000000320000001E
:1038B00032000000320000000000000000000000A4
:1038C0003200000000000000640000000000000062
:1038D0000000000032000000000000003200000084
:1038E00000000000000000000000000032000000A6
:1038F0003200000032000000320000000000000032
:103900000000000064000000000000004B00000008
:103910004B0000004B0000003200000000000000DF
:10392000320000000000000064000000640000009D
:10393000009000400901000000A000400A020000C1
:1039400030313233343536373839414243444546D5
:1039500007000000C800020105000100DF2E000082
:1039600001000000020001004E000400E803000016
:103970000000000078010000C0040000B001000059
:1039800010000000ED210000020000000100000016
:10399000C800000004000000B8050020000000007E
:1039A000000003030000000000000003000000000E
:1039B00000000003000000000300010000000003FD
:1039C0000000000054617267657420426C75653AAE
:1039D0002025642C546172676574205265643A2016
:1039E00025642C54617267657420477265656E3A70
:1039F0002025640A4D7920426C75653A2025642C97
:103A0000204D79205265643A2025642C4D79204759
:103A10007265656E3A2025640A0000005465726D77
:103A2000696E616C00000000483A00000000002050
:103A30001C01000004010000643B00001C01002088
:103A4000641E0000200100000000000000000000D3
:103A50000000000000000000000000000000000066
:103A6000000000005345474745522052545400007F
:103A70000000000002000000020000001C3A0000EC
:103A8000A801002000040000000000000000000069
:103A90000000000000000000000000000000000026
:103AA0000000000000000000000000001C3A0000C0
:103AB000A805002010000000000000000000000029
:103AC00000000000000000000000000000000000F6
:103AD00000000000000000000000000000000000E6
:103AE0003D1700000000000001000000C8000000B9
:103AF00000000000000000000024F40000000000AE
:103B0000000000000000000001000000FFFF0000B6
:103B100000000000000000000000000000000000A5
:103B20000000000000000000000000000000000095
:103B30000000000000000000000000000000000085
:103B40000000000000000000000000000000000075
:103B50000000000000000000000000000000000065
:043B60000000000061
:04000005000000C136
:00000001FF
