:020000040000FA
:10000000E8150020DD010000F7010000F901000003
:1000100000000000000000000000000000000000E0
:10002000000000000000000000000000FB010000D4
:100030000000000000000000FD010000FF010000C2
:100040000102000001020000990800000102000006
:1000500001020000000000006D0400000102000029
:10006000690800007908000089080000010200000A
:100070000102000001020000010200000102000074
:1000800001020000690500000102000001020000F9
:10009000C10700000102000001020000010200008F
:1000A000010200000102000000000000000000004A
:1000B0000000000000000000000000000000000040
:1000C00000F002F800F03EF80CA030C80838241800
:1000D0002D18A246671EAB4654465D46AC4201D180
:1000E00000F030F87E460F3E0FCCB6460126334274
:1000F00000D0FB1AA246AB46334318471C2200002F
:100100003C220000103A02D378C878C1FAD85207CE
:1001100001D330C830C101D504680C6070470000BD
:100120000023002400250026103A01D378C1FBD813
:10013000520700D330C100D50B6070471FB51FBDFB
:1001400010B510BD00F067F91146FFF7F7FF01F099
:100150007DF900F07FF903B4FFF7F2FF03BC00F074
:10016000D7FC0000401E00BF00BF00BF00BF00BFA3
:1001700000BF00BF00BF00BF00BF00BF00BFF1D184
:1001800070470000401E00BF00BF00BF00BF00BF9F
:1001900000BF00BF00BF00BF00BF00BF00BFF1D164
:1001A0007047000070B505460C46164602E00FCCBD
:1001B0000FC5103E102EFAD2082E02D303CC03C571
:1001C000083E042E07D301CC01C5361F03E0217879
:1001D0002970641C6D1C761EF9D270BD03210C4879
:1001E00002680A4302600B4802680A4302600A4838
:1001F00080470A480047FEE7FEE7FEE7FEE7FEE726
:10020000FEE7000006480749074A084B7047000010
:10021000240500405405004015080000C1000000FE
:10022000E8050020E8150020E80D0020E80D00207A
:100230007047F8B5042A2CD3830712D00B78491CD9
:100240000370401C521E83070BD00B78491C0370AF
:10025000401C521E830704D00B78491C0370401CBD
:10026000521E8B079B0F05D0C91ADF002023DE1B0F
:1002700008C90AE0FFF796FFF8BD1D4608C9FD4012
:100280001C46B4402C4310C0121F042AF5D2F308B8
:10029000C91A521EF0D40B78491C0370401C521E20
:1002A000EAD40B78491C0370401C012AE4D4097875
:1002B0000170F8BD002203098B422CD3030A8B4244
:1002C00011D300239C464EE003460B433CD400224E
:1002D00043088B4231D303098B421CD3030A8B4260
:1002E00001D394463FE0C3098B4201D3CB01C01A2E
:1002F000524183098B4201D38B01C01A52414309F9
:100300008B4201D34B01C01A524103098B4201D3E6
:100310000B01C01A5241C3088B4201D3CB00C01A53
:10032000524183088B4201D38B00C01A52414308CB
:100330008B4201D34B00C01A5241411A00D20146F0
:100340005241104670475DE0CA0F00D04942031089
:1003500000D34042534000229C4603098B422DD3D8
:10036000030A8B4212D3FC22890112BA030A8B4280
:100370000CD3890192118B4208D3890192118B42CF
:1003800004D389013AD0921100E08909C3098B4254
:1003900001D3CB01C01A524183098B4201D38B0197
:1003A000C01A524143098B4201D34B01C01A52413A
:1003B00003098B4201D30B01C01A5241C3088B427F
:1003C00001D3CB00C01A524183088B4201D38B006A
:1003D000C01A5241D9D243088B4201D34B00C01AF4
:1003E0005241411A00D20146634652415B10104609
:1003F00001D34042002B00D54942704763465B1051
:1004000000D3404201B50020C046C04602BD70473F
:10041000704770477047754600F024F8AE460500F7
:1004200069465346C008C000854618B020B5FFF79E
:10043000E9FE60BC00274908B6460026C0C5C0C515
:10044000C0C5C0C5C0C5C0C5C0C5C0C5403D4900C8
:100450008D46704710B50446C046C0462046FFF79B
:100460007AFE10BD0048704788050020F8B50024CA
:10047000FF250135012627460094284601F000FC9F
:10048000002808D031484068304204D0304800216C
:100490002818344301602D1D76007F1CADB2042F57
:1004A000EBD3FF207D3001F0EBFB002807D029487B
:1004B0000021016040070443274800690090274E4F
:1004C000200712D00127002527420AD02448AA007D
:1004D000111808690969C004C00E8903B258890F50
:1004E00090477F006D1C042DEED3002C1DDA3046A2
:1004F000203014214156491C17D0077DBC06A40E9C
:10050000204600F013FD80003558002D0DD0BE09A7
:100510000121A140134AA00080180068009A8003BE
:10052000800F114202D0022802D0F8BD0328FCD16E
:10053000032E05D1022807D00221204601F090FBAE
:1005400031462046A847F8BD0321F6E70063004086
:10055000006000407C610040000500502C05002038
:10056000006500400007005010B5064900200860F3
:1005700048608860C860034940390860486001F0FD
:1005800047FE10BD40110140F7B5182148432149ED
:1005900016464418E16A8807800F02280BD0A06A2B
:1005A000626A801A401E01D5226A1018864202DD56
:1005B00089072DD00646002E2AD00027A06A616A3E
:1005C000451A6D1E01D5206A4519616A206A411AD3
:1005D000A94201DC616A451AB54200DB3546616A11
:1005E000E0692A4640180199FFF723FE01987F1918
:1005F00040190190606A761B40196062606A216A46
:10060000884201D100206062002ED7D13846FEBD5D
:100610000020FEBD140000200FB408B504A900910D
:100620006A46039900F004F801B008BC04B018470A
:10063000F7B598B007A802904020002504950390D4
:1006400018980C46059506902178641C002974D0F2
:10065000252907D002A800F02FFA05980028F3DA20
:100660001BB0F0BD002101230227042208262078B8
:10067000232817D02B2813D02D280DD030280DD0AB
:10068000002220780346303B0A2B0ED20A235A431D
:100690001218303A641CF4E7194304E0394302E0CD
:1006A000114300E03143641CE1E70023C7B22E2F61
:1006B0000AD1641C20780746303F0A2F04D20A274B
:1006C0007B431B18303BF4E76C280DD068280BD017
:1006D000702852D00BDC25285AD058282ED06328F9
:1006E0000CD0642858D110E02078641CECE7732803
:1006F00032D0752817D078284ED11FE01A981A9A50
:100700000068011D1160017843E01A981A9F006883
:10071000061D3E6000680191009201460A2202A86F
:1007200000F0F6F838E01A981A9F0068061D3E603F
:100730000068009201910A2209E02FE01A981A9F9E
:100740000068061D3E60006800920191102201467B
:1007500002A800F03FF91FE01A981A9A0068011DDC
:10076000116006683178761C002915D002A800F0C7
:10077000A3F905980028F5DA0EE01A981A9A00688D
:100780000823011D11600168102200960195DFE722
:10079000252102A800F090F9641C5EE70598002866
:1007A00000DC5DE70498002804D0024607A91898E9
:1007B000FFF7EAFE049905984018059050E70000FD
:1007C000FEB50020C043124D029068690190684652
:1007D0002E6900F08BFC074600F076FD0446002FE2
:1007E00008D002AA0199009800F0A0FC029800F03D
:1007F000B5FD06E0029800F0B1FD002801D1002C03
:1008000002D0304600F00EFC00206871FEBD0000F2
:10081000AC00002010B500F0DBFC002805D00E492C
:100820000C484860C8130D4988610D48018CC9B255
:1008300001290ED1818C09070BD1018D0906090F01
:10084000042906D1808D0006000F02D10549012040
:10085000886010BDDFFF07C000050040006C00404D
:10086000C00F00F00006004010B50021014801F063
:1008700095F910BD0080004010B50121014801F03C
:100880008DF910BD0090004010B50221014801F023
:1008900085F910BD00A00040FEB5194CA068194DA7
:1008A000194E002700280ED0706840070BD5A760AE
:1008B000164880690422C0B2A88069460A7008718F
:1008C000A96868468847E069002806D07068000675
:1008D00003D5E761032001F0DDF9606A00280ED03E
:1008E000706880050BD56762084980390868086020
:1008F00002216A4611700190A96868468847FEBDCA
:10090000002100409C000020002300400025004002
:10091000FFB583B00E4670420D9F0C9C00900029DD
:1009200000DB0846012502E0FFF7C4FC6D1C0599B9
:100930008842F9D20698A84200D90546002C04D076
:10094000002E01DB780700D5641EB80702D5069893
:10095000002811D0F8070FD1002C0DD02046641EBE
:10096000A84209D92021039800F0A6F80398C0688E
:100970000028F1DA07B0F0BD002E02DA2D21009E2A
:1009800002E0780707D52B21039800F095F803982B
:10099000C0680028EEDBB807800F022811D1069846
:1009A00000280ED1002C0CD02046641EA84208D985
:1009B0003021039800F080F80398C0680028F1DA2D
:1009C000D8E7019700943146069B059A039800F0FA
:1009D00001F8CFE7FFB581B001271E463D460A9CCE
:1009E000029802E0FFF766FC6D1C03998842F9D279
:1009F000AE4200D935460B98C0071CD1002C1AD046
:100A00000B98800701D5002E02D0202000900BE02B
:100A10003020FBE70099019800F04EF80198C0687B
:100A2000002845DB002C06D02046641EA842F1D8E1
:100A300001E00398474339460298FFF73BFC014623
:100A40000398814201D3012000E000203146761E48
:100A5000012901DD012100E000210843E9D1154E03
:100A600039460298FFF726FC0146029A7943511A4B
:100A70000291315C019800F01FF80198C0680028CD
:100A800005DB38460399FFF715FC0700E8D10B9802
:100A9000C0070DD0002C0BD02046641EA84207D9F9
:100AA0002021019800F008F80198C0680028F1DAC8
:100AB00005B0F0BDD822000010B504468068636818
:100AC000421C934205DB23681954A260E068401C75
:100AD000E060A2686068824209D121682069FFF75E
:100AE00053FDA168884203D00020C043E06010BDE0
:100AF0000020A06010BD30B47446641E2578641CCC
:100B0000AB4200D21D46635D5B00E31830BC184762
:100B1000FEE700001CB506490120C8600549487081
:100B200003206A4610708968684688471CBD00002B
:100B3000002000409C000020044900204870044927
:100B40000122CA604A600349086070479C00002087
:100B50000020004000250040BFF34F8F04490348A8
:100B6000C860BFF34F8F00BFFDE700000400FA0527
:100B700000ED00E070B50D46064600F0CFF80446E3
:100B80002946304600F017F8642148432146FFF714
:100B900091FB80B270BD70B516460C46054600F05C
:100BA000BDF870436421FFF785FB82B221462846D9
:100BB00000F008F870BD10B5406800F033FF80B257
:100BC00010BD000070B5036804460C20232548437F
:100BD000ED5CC018022D01D0082070BD4068904225
:100BE00004D16068D969407988472CE065686E79DE
:100BF000164DAE5D002E01D0112070BD002802D030
:100C00009E69B0420CD3002A02D09869904203D862
:100C1000204601F021F90EE0204601F051F90AE0EA
:100C2000002A01D0964203D8204601F091F902E053
:100C3000204601F0CBF9616802204979685402210D
:100C4000606800F01FFF002070BD0000A8000020B9
:100C5000FFB581B006460768029D0C20454323205E
:100C6000C05DEC19002802D0082005B0F0BD0020BE
:100C70006060294800680090284631680A30085CA6
:100C8000002808D0002069464870039800F0B2FCA4
:100C900000280ED101E00120F5E703987851039870
:100CA00000F0FCFC00256019083000F04BFD002826
:100CB00001D00420D9E76D1CEDB2022DF3D3207AC8
:100CC00000F08AFD607A00F087FD206800F0DCFC0F
:100CD00005467068029900F0C5FE237A01462A464F
:100CE000184600F059FD206800F0CEFC05460221B0
:100CF000706800F0B7FE0146607A2A4600F04CFDAD
:100D00000498012802D1206800F0F8FC0498A07231
:100D10000120E0720020A8E70023000010B5406821
:100D2000022100F07FFE80B210BD10B5046840685B
:100D300000F0C4FE02202034E07010BDF7B588B08A
:100D40000E00044609D02568284620300690C07859
:100D5000002804D008200BB0F0BD0B20FBE700F00A
:100D600055FE002803D0852801D00420F3E700F0C9
:100D700039FC002805D100F00BFC002801D003202D
:100D8000E9E70698FF210170069841700698817086
:100D900000200C224243174600235219D3721172CD
:100DA00051725A1E401CC0B2EA510228F1D30027EA
:100DB000E819203000F0C6FC002809D17F1CFFB2E2
:100DC000022FF5D32846223000F0AAFD002803D0D8
:100DD000204600F0D3FFC8E70027B8003258501C67
:100DE00012D0F019037A39462046FFF731FF0490FC
:100DF000002804D0204600F0C1FF0498ABE7002291
:100E000039462046FFF7DEFE7F1CFFB2022FE4D3F7
:100E100000200922244B316901E04908401C994215
:100E200001D99042F9D3214A516892680292019106
:100E30006946087160681E4A4079029001A960689D
:100E400000F05EFE070004D0204600F097FF384611
:100E500081E73169606800F0F7FE0646A8616068C6
:100E600000F0E7FD01270097042332460221606865
:100E700000F02EFE0221606800F0FBFD0A98E86198
:100E800061680C4A4979002050546068012100686B
:100E900000F040FF60680849407980000C500698D7
:100EA000C770002057E70000FF0F0000002300007C
:100EB0001D1E0000A80000207C0500200003000F7C
:100EC00001D0002070470120704700000022D2436B
:100ED000830004490428CA5002D308182030027441
:100EE000704700002C050020F0B50025ED43002AD6
:100EF00002D00023042601E0042305260A4C04E066
:100F00009F00E7597F1C04D05B1CB342F8D32846EE
:100F1000F0BD5DB2261835759E00A151002AF6D1AC
:100F2000E11820310874F2E72C0500200249091865
:100F300014200856704700002C05002010B50A4CFC
:100F40000020206009A1FFF767FB012081070860EE
:100F500009A10020FFF760FB20680028FCD009A150
:100F60000020FFF759FB10BD0001004031737420D1
:100F70007374657000000000326E642073746570D5
:100F8000000000003372642073746570000000007C
:100F9000F8B514460D460646B2B200211548FFF7D3
:100FA000FAFD1448A2B200210830FFF7F4FDAAB2FE
:100FB00001211048FFF7EFFD00210E48FFF7DAFD91
:100FC000074601210B48FFF7D5FD00900948002195
:100FD0000830FFF7CFFDB742DED10099A942DBD13F
:100FE000A042D9D12B46324603A100200094FFF73E
:100FF00013FBF8BD98220000436F6C6F7220697379
:101000002073657420746F20426C75653A256420E6
:101010005265643A256420477265656E3A25640A14
:1010200000000000F8B5224801694A1C3DD0242286
:101030005143826889184E681E494C684769007997
:10104000E11B0D022D0AED1C002814D101201A4AC3
:1010500000045060184A403A506018494000086047
:10106000174908601749012008602F20FFF78AF808
:101070000F4901200871B54200D23546E819000237
:101080000C49000A403108600A494968001B091BE5
:101090000902090A0002000AC91C814204D9012080
:1010A0000649400480390860F8BD01F01DF8F8BD1C
:1010B000AC000020001501404013014080E200E038
:1010C00000E100E00010014072B602480168491CCE
:1010D00001607047D000002003490868401E086086
:1010E00000D162B670470000D000002010B50E4954
:1010F00000238A78CC78A24212D0521CD2B28A70D5
:10110000022A00D18B708A78074B92001C339A58C0
:101110000260486910180002000A4861012010BDF1
:101120000360002010BD0000AC000020F7B5144C97
:101130000025A76823691EE024215943C9194E6878
:10114000864202D9301A486017E0801B75190026C4
:101150004E600E750E699C460B6AB646002E0AD08C
:10116000019E76193602360A8E607646CE60166883
:101170000E6261461160591CDED12361FEBD000084
:10118000AC0000200121814003484068014201D0A9
:10119000012070470020704790000020012181400D
:1011A00003484078014201D0012070470020704779
:1011B00090000020014610B501208840FFF77EFE18
:1011C00010BD01218140080700D0012070470000B8
:1011D0001048018CC9B2012917D1818C090714D19B
:1011E000018D09060A0F03D1828D1206120F0ED04F
:1011F000090F012903D1828D1206120F07D003298E
:1012000003D1808D0006000F01D00020704701201F
:1012100070470000C00F00F0012181400804000C5D
:1012200000D001207047000010B58AB01422234975
:101230006846FEF7B7FF21491422143105A8FEF7CE
:10124000B1FF1E481E4A69461038FFF777FD1B485C
:101250001B4A05A90838FFF771FD01200321194A2F
:101260000B468400A4182360401C8842F9D9134817
:101270001038FFF75AFD11480838FFF756FD0022D5
:1012800011466420FFF784FE962000F043F9002108
:1012900064220846FFF77CFE962000F03BF900220E
:1012A00064211046FFF774FE962000F033F9002207
:1012B00011461046FFF76CFE0AB010BDA8220000D0
:1012C000111E000000070050F8B523480169009185
:1012D000457833E02048E900C0680E1834782AE0E9
:1012E000182060437168641C0818B178E4B2A14208
:1012F00000D100240178022902D003291BD113E078
:10130000154A40682421926841438F18397D00298D
:1013100011D000F045FF002038750CE024277843F9
:10132000C0180275006A03E00B4900228B68086947
:10133000471CF3D108617078A042D1D128466D1EB8
:10134000EDB20028C6D1044801690098814201D05D
:101350000120F8BD0020F8BDAC000020F8B504461F
:10136000384800270169009146785CE03548F10073
:10137000C2688D1851E0601C07D0324A2420926860
:10138000604321468018046A24E0287818214143EC
:101390006A68401CC0B252182870A978884200D1EF
:1013A0002F70284B516824209B684843C01813783D
:1013B000012B34D1037D002B31D193688360D36836
:1013C000C360136903615269C2611E4A5279002ADF
:1013D00000D087601B4B82685B6996469C46D31A97
:1013E0001A02194B120A9A4202D2C368D21808E0B4
:1013F000724663469A1A1202C368120A934202D9CD
:101400009A1A426000E0476087600122C760027557
:10141000921E0262084600F091FE601CABD1287853
:1014200069788842A7D13046761EF6B200289DD151
:10143000044801690098814201D00120F8BD0020D4
:10144000F8BD0000AC000020FFFF7F0010B51DA11B
:101450000020FFF7E1F8FFF7E7FE002211466420C5
:10146000FFF796FD7D24E400204600F053F80022AB
:1014700064211046FFF78CFD204600F04BF8002158
:1014800064220846FFF784FD204600F043F811A1CE
:101490000020FFF7C1F8FFF751FD13A10020FFF76F
:1014A000BBF8012000F0E2FD14A10020FFF7B4F822
:1014B000002211466420FFF76BFD601000F02AF84F
:1014C000002010BD5374617274696E67204C4544EE
:1014D0000A0000005374617274696E6720436C6F78
:1014E000636B0A2000000000436C6F636B2069731C
:1014F00020456E61626C65640A20000020526164C0
:10150000696F2073657420757020446F6E65210AC1
:101510000000000031B5054C04E0401E009020465C
:10152000FEF720FE00980028F7D138BDE703000041
:101530008207D30EFF229A408907090E10B5994001
:1015400000280BDA03071B0F083B9C080C4BA40078
:10155000E318DC6994430C43DC6107E08408094B21
:10156000A400E418236893430B432360C106C90E0B
:1015700001208840044908600449086010BD00004B
:1015800000ED00E000E400E080E200E000E100E0C7
:1015900070B5124D687D002801D0082070BD0F493C
:1015A00000202039421E0B18401CC0B21A7520289A
:1015B000F9D300242046FFF789FC641CE4B2052C13
:1015C000F8D301210620FFF7B3FF01200449C0072B
:1015D000486001206875002070BD00004C050020A7
:1015E000006300400248407D002800D00120704781
:1015F0004C050020F8B504461E480D46001914217C
:1016000041560026491C01D008262FE0A978002960
:101610001DD0012200212046FFF766FC411C14D09A
:10162000830015482A78181869780369134F3B40DE
:1016300003610369E706FF0C9207920BC907C90A09
:101640003B430A431343036104E004260EE00121F7
:10165000C94301750A4A0320A100891808606A7805
:101660000120A0400749012A02D0C8603046F8BDD9
:101670008860FBE72C05002000650040FFE0ECFFE0
:10168000000700500005005010B5FFF74FFC800622
:101690000149000E401810BD0060004009490918BA
:1016A00014200856810008480918086903221043CD
:1016B0001F22120202430A6100BF00BF00BF08617F
:1016C000704700002C05002000650040002900D074
:1016D0000121084A121814201056820006481018DA
:1016E000026901231B059A430261026909050A4345
:1016F000026170472C0500200065004010B5FFF71F
:1017000015FC8006024A000E01218018016010BD00
:101710000060004070B5044600F018FB07490D1941
:10172000002802D0287DFFF7D1FB0020C043287598
:10173000034A0220A1008918086070BD2C05002012
:1017400000070050F1B50427114E0024FFF7BCFC40
:101750000125A540354204D02046FFF713FD00289F
:101760000AD0FFF7B9FC002F04D0641CAE43E4B2EA
:10177000002EEBD13846F8BD064901204A68A0404A
:1017800010434860009800270470FFF7A5FCF1E7BC
:10179000FFFF00009000002070B514460D000646C3
:1017A00011D0002C0FD0FFF737FD00280DD03046A8
:1017B000FFF7E8FC00280AD00648F1000818056188
:1017C0004461002070BD0E2070BD072070BD082050
:1017D00070BD000000F5014010B50446FFF7EAFCBB
:1017E00000280FD02046FFF717FD002804D0204620
:1017F000FFF7C8FC002807D001200449A0408860FA
:10180000002010BD072010BD082010BD00F50140CC
:1018100010B50446FFF7CEFC00280FD02046FFF796
:10182000FBFC002804D02046FFF7ACFC002807D0C2
:1018300001200449A0404860002010BD072010BDD1
:10184000082010BD00F5014070B50546FFF7E4FC27
:1018500000280ED001240848AC4084600025FFF722
:1018600033FC06484168A1434160FFF735FC284638
:1018700070BD0725FBE7000000F501409000002047
:10188000024610B50120904000F002F810BD0000A3
:1018900070B505460C460846FFF793FC002815D0A6
:1018A0002046FFF77BFC002812D02846FFF706FBF6
:1018B00000280BD0FFF708FC0648A10008180168B3
:1018C00029430160FFF708FC002070BD072070BDB0
:1018D000082070BD00F8014070B505460C4608466A
:1018E000FFF76FFC002815D02046FFF757FC0028B3
:1018F00012D02846FFF7E2FA00280BD0FFF7E4FBEE
:101900000648A10008180168A9430160FFF7E4FB3D
:10191000002070BD072070BD082070BD00F8014098
:10192000F1B504270F260024FFF7CEFB0125A540C3
:10193000354204D02046FFF731FC00280AD0FFF7DB
:10194000CBFB002F04D0641CAE43E4B2002EEBD1DD
:101950003846F8BD054901204A78A0401043487038
:10196000009800270470FFF7B7FBF1E79000002014
:1019700010B50446FFF725FC002806D0044A0120D4
:10198000E10089184860002010BD072010BD00004C
:1019900000F0014010B50446FFF713FC00280BD0FF
:1019A0002046FFF7FBFB002808D0054A0120E10094
:1019B00089180860002010BD072010BD082010BD48
:1019C00000F0014070B50446FFF7FBFB002815D07E
:1019D0002046FFF7E3FB002812D00A490126E00069
:1019E000401846600025FFF76FFB0748A640417886
:1019F000B1434170FFF770FB284670BD0725FBE738
:101A00000825F9E700F00140900000200448017823
:101A1000002901D085207047012101700020704706
:101A20009000002015220068890092018918405812
:101A3000704700680121C160704770B5012424041B
:101A40008C40032605683602AD19002B01D06C606E
:101A500000E0AC6000688900081805210902401800
:101A6000026470BD02688800FF30413080B21018F7
:101A700070470268012000048840032109025118C0
:101A8000886070478A0010B5FF324132036892B215
:101A900000249C50026801200004884003210902B0
:101AA0005118486010BD00000268012111614079A1
:101AB000014A11547047000098000020016801227B
:101AC0000A604079014A02211154704798000020B1
:101AD000F0B5FF25023504688D40FF34FF34023431
:101AE000059E2768AF4327600468FF34FF34023443
:101AF00025681D4325603346FFF79FFFF0BD0000BA
:101B0000F8B504464079224F0D46395C1646002947
:101B100001D00820F8BD002D02D11E49C000451893
:101B20000420E9782056FFF703FD61791A4A8900FD
:101B300068685050002E29D06079114680000C3919
:101B40000E5005202168000209186A784B68D207F8
:101B50005B085B00D20F13434B602268A978121810
:101B6000936889079B089B00890F0B43936021684A
:101B70002A7808180169120709090901120F11438F
:101B800001616179012078540020F8BD0720F8BD7B
:101B900098000020E822000070050020F8B500251C
:101BA0000E4604462F46A800FF30413080B221582F
:101BB000002910D001210904A94003221202A21811
:101BC00052680A4207D02750B2000549044B895891
:101BD0000C3B9A5890476D1C042DE4D3F8BD0000CF
:101BE0007005002070B503460079C106C90E0120BA
:101BF00088401149086058791049002480000C5031
:101C00001846FFF751FF18680D49FF30FF300230CA
:101C100002688A4302600122002012040326360271
:101C200011461D688140AD19A960401C0428F7D3F6
:101C3000587904490C5470BD80E100E0640500202F
:101C40000F0F0000980000200122006805235202B7
:101C50001B02C0180069C2404A4350097047000087
:101C6000820006481018026803231B049A4302608E
:101C7000026809040A430260704700000007005030
:101C8000034940180068012800D000207047000078
:101C90000060004070B5022401221B4D1B4E1C4900
:101CA0000300FEF728FF05040C2619200B004878D6
:101CB000012818D0022801D10320487070BD48784F
:101CC000002802D00328F9D104E004202860326003
:101CD0004A7070BD4C7070BD4878012806D002284B
:101CE00004D00328F7D1FEF727FF70BDFEF712FFDF
:101CF00070BD48780128FBD14878022800D0B26036
:101D00008878E861E6E700000025004000200040F8
:101D10009C000020074A904201D1074803E0074A8F
:101D2000904202D10648C1607047064A9042FBD1FA
:101D30000548F8E700800040008C0040009000401B
:101D4000009C004000A0004000AC0040044908187E
:101D500014214156042901D2012070470020704708
:101D60002C05002010B500680C2251430C18207A75
:101D7000FFF732FD607AFFF72FFD10BDF1B582B09D
:101D8000029800240568281920300078FF2801D027
:101D9000FFF75AFD641CE4B2022CF4D32220405D0C
:101DA000FF2801D0FFF70EFE002420460C214843F7
:101DB000002647190090B8190190007AFF2804D036
:101DC000FFF742FD0199FF200872761CF6B2022E41
:101DD000F1D300982858411C05D0FFF79BFC002147
:101DE0000098C94329500020641CE4B2F872022C08
:101DF000DBD302984068FFF7F5FEFEBD10B504681E
:101E000020342078FFF7E8FC6078FFF7E5FC10BD90
:101E100001490120087070470000002070B50C488F
:101E20000C46015D002911D0015D491E0155005D80
:101E300000280BD1074EA500705902214068FFF71A
:101E400018FE70590068C1692046884770BD0000BF
:101E5000A80000207C050020FEB50C46016806465F
:101E6000009120460C2148430099019047181546DF
:101E70003046FFF7C3FF21463046FFF773FF019856
:101E80000A30002D09D000998969A9420FD88DB276
:101E90003168085C002804D005E03168085C00283F
:101EA00001D0002100E001213868FFF70FFC00237A
:101EB0002A4621467068FFF7C0FD7D60FEBD000028
:101EC000F7B5046882B0064603980C21484305190B
:101ED00003982746009022373046FFF78FFF3046A1
:101EE0000399FFF73FFF00237068049A0099FFF7FA
:101EF000A4FD39781448FFF7EFFC3978287AFFF70A
:101F0000BFFC3978687AFFF7BBFC69680F48002985
:101F1000397813D0C9000F1802217068FFF7A2FDAD
:101F200001462020005D3A46FFF736FC2034207839
:101F3000FFF76EFC0498686005B0F0BDC9000F188B
:101F400070680399EAE70000FFFFF0FF00F001402E
:101F5000F7B500980C2104680198274648430519F5
:101F6000164622370098FFF749FF39781548FFF7E2
:101F7000B3FC3978287AFFF783FC3978687AFFF761
:101F80007FFC1148002E15D0218B8EB23978C90004
:101F90000F18009802214068FFF764FD01462020D9
:101FA000005D3A46FFF7F8FB20342078FFF730FC5D
:101FB0006E60FEBD3978C9000F180098019940681D
:101FC000EAE70000FFFFF0FF04F00140F7B5056805
:101FD00082B0064603980C2148432C464719223408
:101FE00021782148FFF778FC203521782878FFF701
:101FF00047FC21786878FFF743FC2078FFF7B8FCAE
:1020000003217068FFF72EFD01467068026803988F
:102010008000403012182878FFF7BEFB79680498DA
:1020200081420DD93868FFF72FFB009003217068BB
:10203000FFF718FD01466878009AFFF7ADFB05E051
:102040006A78012021789040FFF746FC0498786078
:10205000002370680321049AFFF7EFFC2078FFF754
:1020600099FC05B0F0BD0000FFFFF0FF10B512496C
:102070000124CC63114AA11E9160114900230B6019
:102080001049CB600C614B610F4A8A610F4ACA61EB
:102090000A620F4A4A628A62CB620C6302224A6376
:1020A0000C4A8A630C4ACA63886002460BA100206E
:1020B000FEF7B2FA10BD0000C01F00400013004040
:1020C000001200400015004020200200494C494CFD
:1020D0004444444421100000FFFF00003234302506
:1020E00064204D687A0A000070B501240B49600431
:1020F00008600B4940108860094940398860094DE3
:102100006C602F20FEF73EF8AC60074D00242F20B6
:102110006C61FEF737F82C7170BD000080E100E0C3
:102120004013014000100140AC0000200120024992
:10213000000508607047000000E200E0F0B5174FAE
:102140002421BC6841430D1939694A1C09D0242255
:102150004A4316196B687268934204D8D21A7260A7
:1021600029623861F0BD0A4602E00A46396A9B1BC3
:102170004E1C0BD024264E4337197E689E42F4D362
:1021800024264E4336197768FF1A77606B60296200
:1021900024214A4311190862F0BD0000AC00002060
:1021A00070B5194C2269A5681346114606E08142B4
:1021B00007D00A46242671434919096A4E1CF6D1F4
:1021C00070BD002EFCD08A420CD124204343581904
:1021D000006A2061401C05D10C4B0120986000234F
:1021E00063616071242041434819242341685A43A4
:1021F000006A52191062421CE2D024225043401956
:1022000042685118416070BDAC00002000100140D0
:10221000F8B51D4C2569681C35D01C48002640685F
:102220006169401A07023F0A19E024204543A0686B
:102230002A185068B84214D8A3693F1A8619156A3B
:10224000002B09D0D16990699847002807D0002257
:102250001146FEF781FC02E09169D0698847681C4D
:10226000E3D1A178E078814206D1401CC0B2E07091
:10227000022801D10020E07003490006800D1C31C6
:102280000E50FFF753FFF8BDAC00002000150140D1
:102290000080004008000000D400002090220000D0
:1022A000F8000020D0220000010000000200000021
:1022B000000000000200000088130000030000007E
:1022C000FFFFFFFF00000000010000008813000076
:1022D00000A000400A020000303132333435363776
:1022E00038394142434445460000030300000000E2
:1022F00000000003000000000000000300000000D8
:102300000300010000000003000000005465726D2E
:10231000696E616C0000000038230000000000209E
:10232000D4000000040100000C240000D4000020B0
:102330001415000020010000000000000000000053
:102340000000000000000000000000005345474767
:1023500045522052545400000000000002000000CA
:10236000020000000C2300001C01002000040000FB
:10237000000000000000000000000000000000005D
:10238000000000000000000000000000000000004D
:10239000000000000C2300001C05002010000000BD
:1023A000000000000000000000000000000000002D
:1023B000000000000000000000000000000000001D
:1023C000000000000024F4000000000000000000F5
:1023D0000000000001000000FFFF000000000000FE
:1023E00000000000000000000000000000000000ED
:1023F00000000000000000000000000000000000DD
:0C240000000000000000000000000000D0
:04000005000000C136
:00000001FF
