:020000040000FA
:1000000048090020150100002F0100003101000007
:1000100000000000000000000000000000000000E0
:10002000000000000000000000000000330100009C
:100030000000000000000000350100003701000052
:1000400039010000390100001506000039010000E7
:100050003901000000000000210400003901000007
:10006000E5050000F5050000050600003901000067
:100070003901000039010000390100003901000098
:10008000390100001D0500003901000039010000A0
:100090003D05000039010000390100003901000070
:1000A00039010000390100000000000000000000DC
:1000B0000000000000000000000000000000000040
:1000C0000348854600F078F900480047DD0F00003E
:1000D00048090020401E00BF00BF00BF00BF00BF96
:1000E00000BF00BF00BF00BF00BF00BF00BFF1D115
:1000F00070470000401E00BF00BF00BF00BF00BF30
:1001000000BF00BF00BF00BF00BF00BF00BFF1D1F4
:10011000704700000321094802680A43026008484A
:1001200002680A4302600748804707480047FEE725
:10013000FEE7FEE7FEE7FEE7FEE7000024050040DD
:100140005405004091050000C100000030B50B4689
:10015000014600202022012409E00D46D5409D42A1
:1001600005D31D469540491B254695404019154627
:10017000521E002DF1DC30BD70B50024254600284C
:1001800001DA01244042002901DA01254942FFF742
:10019000DDFFAC4200D04042002C00D0494270BD8F
:1001A00003460B439B0703D009E008C9121F08C090
:1001B000042AFAD203E00B780370401C491C521E3B
:1001C000F9D27047F0B50C465C4085B0E40FE40707
:1001D00003944C00002664085900944649080246DE
:1001E0000296224321D062460A431ED06200570D78
:1001F0004A000E032303550D012402462C49240511
:10020000781B1B0B360B4018234326436146009096
:100210001C46501AB44103D30098401C009002E0E1
:10022000921800985B41002803DA0020014605B0CF
:10023000F0BD0020012109050746864611E064460D
:100240001D46141BB54106D36546521BB341744687
:1002500007430C43A646CD07400849082843921897
:100260005B4105460D43EAD11046184313D0604662
:10027000194650407140084306D06046101AB341F9
:1002800006D20122002306E000220123DB0702E060
:100290000122D2435310009874460105381C614175
:1002A000029C039D0019694100F026F8BFE7000099
:1002B000FD0300000EB505490291002100910A4698
:1002C0000B46019100F025F803B000BD3304000097
:1002D00010B5002904DB0124E40740428C4121468B
:1002E000002B04DB1C460123DB075242A341994249
:1002F00000D1904210BD000010B5002B08DA002498
:10030000401C614192185B411A4301D140084000F2
:1003100010BDF0B51FB482B005460C0003D00846EE
:1003200000F0B4F902E000F0B1F92030024600908C
:100330002146284600F052F8049B059A04460F46D1
:1003400018431143084314D0184610431BD000989B
:1003500040210A1A1846059900F050F805460E4645
:10036000009A0599049800F039F8084305D0012057
:1003700004E02046394607B0F0BD0020C117054310
:100380000E432C43374300990E986305401A7905B4
:10039000E40A00220C43FD0A0A3002D5002001467F
:1003A000E9E70105101969410C9C0D9D001969418F
:1003B000FFF7A2FFDFE70000064C0125064E05E02F
:1003C000E36807CC2B430C3C98471034B442F7D376
:1003D000FFF77AFE88200000A820000010B5202A30
:1003E00004DB0146203A9140002010BD91402023BB
:1003F0009C1A0346E3401943904010BD10B5202AD3
:1004000004DB0846203AD040002110BD0B46D34003
:10041000D0402024A21A91400843194610BD000084
:10042000F8B50024FF25013501262746009428460B
:1004300001F02AFA002808D031484068304204D040
:10044000304800212818344301602D1D76007F1CA0
:10045000ADB2042FEBD3FF207D3001F015FA002858
:1004600007D029480021016040070443274800695C
:100470000090274E200712D00127002527420AD0DE
:100480002448AA00111808690969C004C00E89032C
:10049000B258890F90477F006D1C042DEED3002CBD
:1004A0001DDA3046203014214156491C17D0077DF3
:1004B000BC06A40E204600F045FB80003558002DF8
:1004C0000DD0BE090121A140134AA0008018006888
:1004D000009A8003800F114202D0022802D0F8BD9A
:1004E0000328FCD1032E05D1022807D00221204683
:1004F00001F0BAF931462046A847F8BD0321F6E7D6
:1005000000630040006000407C6100400005005036
:10051000E8000020006500400007005010B50649C3
:100520000020086048608860C8600349403908605E
:10053000486001F021FD10BD40110140FEB50020D2
:10054000C043124D02906869019068462E6900F020
:10055000A1FB074600F080FC0446002F08D002AA49
:100560000199009800F0B6FB029800F0BFFC06E08D
:10057000029800F0BBFC002801D1002C02D03046CC
:1005800000F024FB00206871FEBD00003400002054
:1005900010B500F0F1FB002805D00E490C4848606A
:1005A000C8130D4988610D48018CC9B201290ED1CB
:1005B000818C09070BD1018D0906090F042906D189
:1005C000808D0006000F02D105490120886010BD12
:1005D000DFFF07C000050040006C0040C00F00F0C6
:1005E0000006004010B50021014801F0DBF810BD05
:1005F0000080004010B50121014801F0D3F810BD82
:100600000090004010B50221014801F0CBF810BD68
:1006100000A00040FEB5194CA068194D194E0027E6
:1006200000280ED0706840070BD5A7601648806977
:100630000422C0B2A88069460A700871A968684699
:100640008847E069002806D07068000603D5E76196
:10065000032001F023F9606A00280ED0706880053D
:100660000BD56762084980390868086002216A462C
:1006700011700190A96868468847FEBD00210040BE
:100680002400002000230040002500402021020C0F
:1006900001D010211046020A01D010460839020983
:1006A00001D01046091F820801D01046891E420859
:1006B00001D0881E7047081A704730B47446641E13
:1006C0002578641CAB4200D21D46635D5B00E318D5
:1006D00030BC184702E008C8121F08C1002AFAD12E
:1006E00070477047002001E001C1121F002AFBD1B2
:1006F000704700001CB506490120C86005494870D4
:1007000003206A4610708968684688471CBD00004F
:1007100000200040240000200449002048700449C3
:100720000122CA604A600349086070472400002023
:100730000020004000250040BFF34F8F04490348CC
:10074000C860BFF34F8F00BFFDE700000400FA054B
:1007500000ED00E070B50D46064600F0CFF8044607
:100760002946304600F017F8642148432146FFF738
:10077000EDFC80B270BD70B516460C46054600F023
:10078000BDF870436421FFF7E1FC82B221462846A0
:1007900000F008F870BD10B5406800F047FF80B267
:1007A00010BD000070B5036804460C2023254843A3
:1007B000ED5CC018022D01D0082070BD4068904249
:1007C00004D16068D969407988472CE065686E7902
:1007D000164DAE5D002E01D0112070BD002802D054
:1007E0009E69B0420CD3002A02D09869904203D887
:1007F000204601F035F90EE0204601F065F90AE0E7
:10080000002A01D0964203D8204601F0A5F902E063
:10081000204601F0DFF9616802204979685402211D
:10082000606800F033FF002070BD00003000002041
:10083000FFB581B006460768029D0C204543232082
:10084000C05DEC19002802D0082005B0F0BD0020E2
:100850006060294800680090284631680A30085CCA
:10086000002808D0002069464870039800F0C6FCB4
:1008700000280ED101E00120F5E703987851039894
:1008800000F010FD00256019083000F05FFD002821
:1008900001D00420D9E76D1CEDB2022DF3D3207AEC
:1008A00000F09EFD607A00F09BFD206800F0F0FCF7
:1008B00005467068029900F0D9FE237A01462A465F
:1008C000184600F06DFD206800F0E2FC05460221AC
:1008D000706800F0CBFE0146607A2A4600F060FDA9
:1008E0000498012802D1206800F00CFD0498A07241
:1008F0000120E0720020A8E77C20000010B54068CD
:10090000022100F093FE80B210BD10B5046840686B
:1009100000F0D8FE02202034E07010BDF7B588B09A
:100920000E00044609D02568284620300690C0787D
:10093000002804D008200BB0F0BD0B20FBE700F02E
:1009400069FE002803D0852801D00420F3E700F0D9
:100950004DFC002805D100F01FFC002801D0032029
:10096000E9E70698FF2101700698417006988170AA
:1009700000200C224243174600235219D3721172F1
:1009800051725A1E401CC0B2EA510228F1D300270E
:10099000E819203000F0DAFC002809D17F1CFFB2F2
:1009A000022FF5D32846223000F0BEFD002803D0E8
:1009B000204600F0E7FFC8E70027B8003258501C77
:1009C00012D0F019037A39462046FFF731FF049020
:1009D000002804D0204600F0D5FF0498ABE70022A1
:1009E00039462046FFF7DEFE7F1CFFB2022FE4D31C
:1009F00000200922244B316901E04908401C99423A
:100A000001D99042F9D3214A51689268029201912A
:100A10006946087160681E4A4079029001A96068C1
:100A200000F072FE070004D0204600F0ABFF38460D
:100A300081E73169606800F00BFF0646A8616068D5
:100A400000F0FBFD01270097042332460221606875
:100A500000F042FE0221606800F00FFE0A98E86193
:100A600061680C4A4979002050546068012100688F
:100A700000F054FF60680849407980000C500698E7
:100A8000C770002057E70000FF0F00007C20000027
:100A9000251A000030000020380100200003000F5C
:100AA00001D00020704701207047FFB581B01C467F
:100AB00016460F460A9D10E032463946019800F06E
:100AC0006DF8284600F02AFB00221146104600F07F
:100AD00065F8284600F022FB641E002CECDC05B013
:100AE000F0BD00000022D243830004490428CA500C
:100AF00002D308182030027470470000E80000207C
:100B0000F0B50025ED43002A02D00023042601E0C1
:100B1000042305260A4C04E09F00E7597F1C04D0FB
:100B20005B1CB342F8D32846F0BD5DB2261835757C
:100B30009E00A151002AF6D1E11820310874F2E795
:100B4000E8000020024909181420085670470000E8
:100B5000E800002038B500216422084600F01EF8A5
:100B60000C4900230B600120820710600C68002CE8
:100B7000FCD0094CA0614B60906048680028FCD014
:100B8000642002460021009002230846FFF78DFFF3
:100B900038BD0000000100400005004070B514465B
:100BA0000D4682B200210848FFF7E5FD0648AAB2CB
:100BB00000210830FFF7DFFD0348A2B2002110300A
:100BC000FFF7D9FD70BD000000200000F8B52248F5
:100BD00001694A1C3DD024225143826889184E681D
:100BE0001E494C6847690079E11B0D022D0AED1C76
:100BF000002814D101201A4A00045060184A403AD3
:100C000050601849400008601749086017490120E2
:100C100008602F20FFF76EFA0F4901200871B542D6
:100C200000D23546E81900020C49000A403108603C
:100C30000A494968001B091B0902090A0002000A47
:100C4000C91C814204D9012006494004803908604A
:100C5000F8BD01F0CBF8F8BD3400002000150140CC
:100C60004013014080E200E000E100E0001001409C
:100C700072B602480168491C0160704758000020A4
:100C800003490868401E086000D162B67047000042
:100C90005800002010B50E4900238A78CC78A24273
:100CA00012D0521CD2B28A70022A00D18B708A787C
:100CB000074B92001C339A580260486910180002D2
:100CC000000A4861012010BD0360002010BD000033
:100CD00034000020F7B5144C0025A76823691EE0F6
:100CE00024215943C9194E68864202D9301A4860F6
:100CF00017E0801B751900264E600E750E699C4624
:100D00000B6AB646002E0AD0019E76193602360AC4
:100D10008E607646CE6016680E6261461160591C80
:100D2000DED12361FEBD000034000020012181409E
:100D300003484068014201D00120704700207047FD
:100D4000180000200121814003484078014201D071
:100D5000012070470020704718000020014610B5A0
:100D600001208840FFF79AFE10BD0121814008074D
:100D700000D00120704700001048018CC9B2012941
:100D800017D1818C090714D1018D09060A0F03D1EF
:100D9000828D1206120F0ED0090F012903D1828D08
:100DA0001206120F07D0032903D1808D0006000F11
:100DB00001D000207047012070470000C00F00F0F4
:100DC000012181400804000C00D001207047000080
:100DD00010B590B014221D496846FFF7E1F91B4990
:100DE0001422143105A8FFF7DBF918491422283121
:100DF0000AA8FFF7D5F91548154A69461838FFF7CC
:100E00008DFD1248124A05A91038FFF787FD0F48DB
:100E10000F4A0AA90838FFF781FD012003210D4A76
:100E20000B468400A4182360401C8842F9D9074867
:100E30001838FFF76AFD05481038FFF766FD0348CC
:100E40000838FFF762FD10B010BD00001820000048
:100E5000191A000000070050F8B5234801690091F5
:100E6000457833E02048E900C0680E1834782AE05D
:100E7000182060437168641C0818B178E4B2A1427C
:100E800000D100240178022902D003291BD113E0EC
:100E9000154A40682421926841438F18397D002902
:100EA00011D001F031F8002038750CE02427784388
:100EB000C0180275006A03E00B4900228B680869BC
:100EC000471CF3D108617078A042D1D128466D1E2D
:100ED000EDB20028C6D1044801690098814201D0D2
:100EE0000120F8BD0020F8BD34000020F8B504460C
:100EF000384800270169009146785CE03548F100E8
:100F0000C2688D1851E0601C07D0324A24209268D4
:100F1000604321468018046A24E028781821414360
:100F20006A68401CC0B252182870A978884200D163
:100F30002F70284B516824209B684843C0181378B1
:100F4000012B34D1037D002B31D193688360D368AA
:100F5000C360136903615269C2611E4A5279002A53
:100F600000D087601B4B82685B6996469C46D31A0B
:100F70001A02194B120A9A4202D2C368D21808E028
:100F8000724663469A1A1202C368120A934202D941
:100F90009A1A426000E0476087600122C7600275CC
:100FA000921E0262084600F07DFF601CABD12878DB
:100FB00069788842A7D13046761EF6B200289DD1C6
:100FC000044801690098814201D00120F8BD002049
:100FD000F8BD000034000020FFFF7F00FFF7F8FE9F
:100FE000002211466420FFF7D9FDC82000F096F8D2
:100FF000002264211046FFF7D1FDC82000F08EF8D2
:10100000002164220846FFF7C9FDC82000F086F8D9
:10101000002211461046FFF7C1FDFFF79BFD01209E
:1010200000F064FE002211463220FFF7B7FDFF20DA
:10103000F53000F073F80A2000F0FAFE144C7D251C
:101040002D0100211348FFF785FB20701148002176
:101050000830FFF77FFB60700E4800211030FFF76B
:1010600079FBA0700A4800F07BFE284600F056F895
:10107000074800F0FFFD002806D0074BA2786178F2
:1010800020785B7800F00AF8284600F047F8D8E7A7
:101090005C0000200020000000000020FFB581B0AF
:1010A0001C4600211C48FFF755FB00901A48002100
:1010B0000830FFF74FFB0546174800211030FFF7B7
:1010C00049FB7F210E1B70436421FFF755F807464B
:1010D000039864216043FFF74FF83F187543284693
:1010E0006421FFF749F80546029864216043FFF741
:1010F00043F82D18009864217043FFF73DF8064629
:10110000019864216043FFF737F830183A462946C2
:10111000FFF744FD05B0F0BD0020000031B5054CDF
:1011200004E0401E00902046FEF7D4FF00980028FF
:10113000F7D138BDE70300008207D30EFF229A40A3
:101140008907090E10B5994000280BDA03071B0F19
:10115000083B9C080C4BA400E318DC6994430C4347
:10116000DC6107E08408094BA400E418236893437A
:101170000B432360C106C90E012088400449086062
:101180000449086010BD000000ED00E000E400E04C
:1011900080E200E000E100E070B5124D687D0028BB
:1011A00001D0082070BD0F4900202039421E0B18C5
:1011B000401CC0B21A752028F9D300242046FFF73E
:1011C00091FC641CE4B2052CF8D301210620FFF742
:1011D000B3FF01200449C007486001206875002062
:1011E00070BD000008010020006300400248407DFF
:1011F000002800D00120704708010020F8B50446FF
:101200001E480D460019142141560026491C01D0E4
:1012100008262FE0A97800291DD0012200212046B0
:10122000FFF76EFC411C14D0830015482A7818186B
:1012300069780369134F3B4003610369E706FF0CBC
:101240009207920BC907C90A3B430A431343036140
:1012500004E004260EE00121C94301750A4A032077
:10126000A100891808606A780120A0400749012A76
:1012700002D0C8603046F8BD8860FBE7E800002077
:1012800000650040FFE0ECFF000700500005005043
:1012900010B5FFF757FC80060149000E401810BD3D
:1012A00000600040094909181420085681000848C8
:1012B00009180869032210431F22120202430A611F
:1012C00000BF00BF00BF086170470000E8000020B9
:1012D00000650040002900D00121084A121814209E
:1012E0001056820006481018026901231B059A4314
:1012F0000261026909050A4302617047E8000020A3
:101300000065004010B5FFF71DFC8006024A000E84
:1013100001218018016010BD0060004070B50446D6
:1013200000F018FB07490D19002802D0287DFFF7AF
:10133000D9FB0020C0432875034A0220A100891868
:10134000086070BDE800002000070050F1B50427D8
:10135000114E0024FFF78CFC0125A540354204D036
:101360002046FFF7E3FC00280AD0FFF789FC002F96
:1013700004D0641CAE43E4B2002EEBD13846F8BD75
:10138000064901204A68A0401043486000980027A1
:101390000470FFF775FCF1E7FFFF00001800002064
:1013A00070B514460D00064611D0002C0FD0FFF783
:1013B00007FD00280DD03046FFF7B8FC00280AD002
:1013C0000648F100081805614461002070BD0E2038
:1013D00070BD072070BD082070BD000000F5014001
:1013E00010B50446FFF7BAFC00280FD02046FFF7DF
:1013F000E7FC002804D02046FFF798FC002807D01F
:1014000001200449A0408860002010BD072010BDC5
:10141000082010BD00F5014010B50446FFF79EFC02
:1014200000280FD02046FFF7CBFC002804D0204630
:10143000FFF77CFC002807D001200449A040486049
:10144000002010BD072010BD082010BD00F5014090
:1014500070B50546FFF7B4FC00280ED001240848FB
:10146000AC4084600025FFF703FC06484168A143B7
:101470004160FFF705FC284670BD0725FBE700002B
:1014800000F5014018000020024610B501209040F0
:1014900000F002F810BD000070B505460C46084685
:1014A000FFF763FC002815D02046FFF74BFC00280F
:1014B00012D02846FFF7F2FA00280BD0FFF7D8FB2E
:1014C0000648A1000818016829430160FFF7D8FB0E
:1014D000002070BD072070BD082070BD00F80140DD
:1014E00070B505460C460846FFF73FFC002815D0AE
:1014F0002046FFF727FC002812D02846FFF7CEFA37
:1015000000280BD0FFF7B4FB0648A10008180168BB
:10151000A9430160FFF7B4FB002070BD072070BD38
:10152000082070BD00F80140F1B504270F26002403
:10153000FFF79EFB0125A540354204D02046FFF76A
:1015400001FC00280AD0FFF79BFB002F04D0641C8D
:10155000AE43E4B2002EEBD13846F8BD0549012078
:101560004A78A04010434870009800270470FFF7A5
:1015700087FBF1E71800002010B50446FFF7F5FBE4
:10158000002806D0044A0120E100891848600020A4
:1015900010BD072010BD000000F0014010B504464A
:1015A000FFF7E3FB00280BD02046FFF7CBFB00281A
:1015B00008D0054A0120E10089180860002010BD0C
:1015C000072010BD082010BD00F0014070B5044692
:1015D000FFF7CBFB002815D02046FFF7B3FB002810
:1015E00012D00A490126E000401846600025FFF7A6
:1015F0003FFB0748A6404178B1434170FFF740FBED
:10160000284670BD0725FBE70825F9E700F00140F3
:101610001800002004480178002901D08520704777
:101620000121017000207047180000201522006879
:101630008900920189184058704700680121C160F3
:10164000704770B5012424048C40032605683602D7
:10165000AD19002B01D06C6000E0AC60006889001F
:101660000818052109024018026470BD026888004C
:10167000FF30413080B2101870470268012000042A
:101680008840032109025118886070478A0010B50C
:10169000FF324132036892B200249C50026801205C
:1016A00000048840032109025118486010BD000061
:1016B0000268012111614079014A1154704700000C
:1016C00020000020016801220A604079014A0221BD
:1016D0001154704720000020F0B5FF250235046842
:1016E0008D40FF34FF340234059E2768AF432760E6
:1016F0000468FF34FF34023425681D4325603346F7
:10170000FFF79FFFF0BD0000F8B504464079224F77
:101710000D46395C1646002901D00820F8BD002D81
:1017200002D11E49C00045180420E9782056FFF771
:1017300003FD61791A4A890068685050002E29D04B
:101740006079114680000C390E5005202168000296
:1017500009186A784B68D2075B085B00D20F134305
:101760004B602268A9781218936889079B089B0030
:10177000890F0B43936021682A78081801691207C2
:1017800009090901120F114301616179012078549F
:101790000020F8BD0720F8BD2000002064200000D4
:1017A0002C010020F8B500250E4604462F46A8005F
:1017B000FF30413080B22158002910D001210904A6
:1017C000A94003221202A21852680A4207D02750E9
:1017D000B2000549044B89580C3B9A5890476D1C40
:1017E000042DE4D3F8BD00002C01002070B50346A1
:1017F0000079C106C90E0120884011490860587956
:101800001049002480000C501846FFF751FF18685B
:101810000D49FF30FF30023002688A430260012226
:10182000002012040326360211461D688140AD19BE
:10183000A960401C0428F7D3587904490C5470BDA2
:1018400080E100E0200100200F0F000020000020B8
:1018500001220068052352021B02C0180069C24021
:101860004A43500970470000820006481018026879
:1018700003231B049A430260026809040A430260BE
:101880007047000000070050034940180068012815
:1018900000D00020704700000060004070B50224B6
:1018A00001221B4D1B4E1C490300FEF706FF0504D9
:1018B0000C2619200B004878012818D0022801D1E5
:1018C0000320487070BD4878002802D00328F9D161
:1018D00004E00420286032604A7070BD4C7070BD16
:1018E0004878012806D0022804D00328F7D1FEF753
:1018F00013FF70BDFEF7FEFE70BD48780128FBD1D6
:101900004878022800D0B2608878E861E6E70000F5
:10191000002500400020004024000020074A90429B
:1019200001D1074803E0074A904202D10648C1604E
:101930007047064A9042FBD10548F8E70080004016
:10194000008C004000900040009C004000A000403F
:1019500000AC00400449081814214156042901D262
:101960000120704700207047E800002010B5006893
:101970000C2251430C18207AFFF732FD607AFFF7F2
:101980002FFD10BDF1B582B002980024056828191A
:1019900020300078FF2801D0FFF75AFD641CE4B224
:1019A000022CF4D32220405DFF2801D0FFF70EFE69
:1019B000002420460C214843002647190090B819FE
:1019C0000190007AFF2804D0FFF742FD0199FF2023
:1019D0000872761CF6B2022EF1D300982858411CEA
:1019E00005D0FFF79BFC00210098C9432950002037
:1019F000641CE4B2F872022CDBD302984068FFF753
:101A0000F5FEFEBD10B5046820342078FFF7E8FC31
:101A10006078FFF7E5FC10BD0149012008707047B0
:101A20000000002070B50C480C46015D002911D063
:101A3000015D491E0155005D00280BD1074EA50030
:101A4000705902214068FFF718FE70590068C1699B
:101A50002046884770BD000030000020380100207B
:101A6000FEB50C4601680646009120460C2148430D
:101A700000990190471815463046FFF7C3FF2146ED
:101A80003046FFF773FF01980A30002D09D0009906
:101A90008969A9420FD88DB23168085C002804D04A
:101AA00005E03168085C002801D0002100E0012138
:101AB0003868FFF70FFC00232A4621467068FFF7BD
:101AC000C0FD7D60FEBD0000F7B5046882B006462B
:101AD00003980C21484305190398274600902237A4
:101AE0003046FFF78FFF30460399FFF73FFF002393
:101AF0007068049A0099FFF7A4FD39781448FFF73D
:101B0000EFFC3978287AFFF7BFFC3978687AFFF75D
:101B1000BBFC69680F480029397813D0C9000F1839
:101B200002217068FFF7A2FD01462020005D3A46C1
:101B3000FFF736FC20342078FFF76EFC04986860CD
:101B400005B0F0BDC9000F1870680399EAE70000FE
:101B5000FFFFF0FF00F00140F7B500980C2104688A
:101B60000198274648430519164622370098FFF783
:101B700049FF39781548FFF7B3FC3978287AFFF721
:101B800083FC3978687AFFF77FFC1148002E15D066
:101B9000218B8EB23978C9000F1800980221406855
:101BA000FFF764FD01462020005D3A46FFF7F8FB91
:101BB00020342078FFF730FC6E60FEBD3978C90014
:101BC0000F18009801994068EAE70000FFFFF0FF56
:101BD00004F00140F7B5056882B0064603980C2171
:101BE00048432C464719223421782148FFF778FCD6
:101BF000203521782878FFF747FC21786878FFF7AF
:101C000043FC2078FFF7B8FC03217068FFF72EFD36
:101C100001467068026803988000403012182878E6
:101C2000FFF7BEFB7968049881420DD93868FFF749
:101C30002FFB009003217068FFF718FD01466878BC
:101C4000009AFFF7ADFB05E06A780120217890400B
:101C5000FFF746FC04987860002370680321049A1B
:101C6000FFF7EFFC2078FFF799FC05B0F0BD00000E
:101C7000FFFFF0FF70B5174900240C61164B0122DD
:101C80001A610D69002DFCD0144D68601448056878
:101C90001026354305600C605A6008680028FCD0A7
:101CA000CC60CC615A619A60C8680028FCD00B48AF
:101CB000403080680B4D4006400E6870CC610C616E
:101CC0001A6108690028FCD007480068002800D085
:101CD000012070BD001100400010004000150040C0
:101CE00000120040000000200014004038B51349E5
:101CF0000123CB63124A991E9160124900220A60A7
:101D00001149CA600B614A61104C8C61104CCC6166
:101D10000C62104C4C628C62CA620B6302224A63F2
:101D20000D4A8A630D4ACA63886064200022022338
:101D300011460090FEF7B9FE38BD0000C01F0040FC
:101D40000013004000120040001500402020020057
:101D5000494C494C4444444421100000FFFF00001A
:101D6000F8B5054600211C48FEF7F4FC1B4C002189
:101D7000606019480830FEF7EDFCA06016480021AD
:101D80001030FEF7E7FC16490022E0600A61154BAF
:101D9000012018610E69002EFCD0134E75600A6098
:101DA00018600D68002DFCD0CA609860CD68002DC9
:101DB000FCD00A61186108690028FCD03220642236
:101DC0000090022311461046FEF76FFE241D07CC3B
:101DD000FEF7E4FEF8BD0000002000000000002037
:101DE00000110040001000400015004070B50124B3
:101DF0000B49600408600B4940108860094940396C
:101E00008860094D6C602F20FEF774F9AC60074DB7
:101E100000242F206C61FEF76DF92C7170BD00005D
:101E200080E100E040130140001001403400002038
:101E3000F8B5074614480121016119E00020C043AC
:101E400006460020C043801BFEF734FA00220F4BE9
:101E5000FEF7B8F9052204460D4611461046FEF776
:101E60009DFE00220A4B20462946FEF731FAE8D2B1
:101E7000002FE3DC32200090034864220369002134
:101E80001420FEF712FEF8BD0000002000005940AB
:101E90000000F03F01200249000508607047000083
:101EA00000E200E0F0B5174F2421BC6841430D1952
:101EB00039694A1C09D024224A4316196B68726892
:101EC000934204D8D21A726029623861F0BD0A4682
:101ED00002E00A46396A9B1B4E1C0BD024264E4357
:101EE00037197E689E42F4D324264E43361977680C
:101EF000FF1A77606B60296224214A431119086236
:101F0000F0BD00003400002070B5194C2269A568AE
:101F10001346114606E0814207D00A462426714343
:101F20004919096A4E1CF6D170BD002EFCD08A42B8
:101F30000CD1242043435819006A2061401C05D16C
:101F40000C4B0120986000236361607124204143A1
:101F50004819242341685A43006A52191062421CEE
:101F6000E2D024225043401942685118416070BDAC
:101F70003400002000100140F8B51D4C2569681C94
:101F800035D01C48002640686169401A07023F0AA4
:101F900019E024204543A0682A185068B84214D894
:101FA000A3693F1A8619156A002B09D0D169906977
:101FB0009847002807D000221146FEF7BDFB02E03B
:101FC0009169D0698847681CE3D1A178E0788142A3
:101FD00006D1401CC0B2E070022801D10020E070A0
:101FE00003490006800D1C310E50FFF753FFF8BD6A
:101FF000340000200015014000800040080000006F
:102000007C000020F81F0000A000002054200000E9
:10201000C40000205C20000001000000FFFFFFFF63
:102020000000000001000000F401000002000000B8
:10203000FFFFFFFF0000000001000000F4010000AE
:1020400003000000FFFFFFFF000000000100000090
:10205000F4010000009000400901000000A00040D1
:102060000A0200000000030300000000000000035B
:102070000000000000000003000000000300010059
:102080000000000300000000A82000000000002065
:102090005C000000D4060000042100005C00002069
:1020A000EC080000E4060000000000000000000052
:1020B0000000000000000000000000000024F40008
:1020C000000000000000000000000000010000000F
:1020D000FFFF000000000000000000000000000002
:1020E00000000000000000000000000000000000F0
:1020F00000000000000000000000000000000000E0
:0421000000000000DB
:04000005000000C136
:00000001FF
